:100000000C942A000C9447000C9447000C94470071
:100010000C9447000C9447000C9447000C94490939
:100020000C9447000C9447000C9447000C94470034
:100030000C9447000C9447000C9447000C94470024
:100040000C9447000C9447000C9447000C94470014
:100050000C94470011241FBECFE5D8E0DEBFCDBF12
:1000600010E0A0E6B0E0E2EFFEE202C005900D92E3
:10007000AC37B107D9F714E0ACE7B0E001C01D928E
:10008000A633B107E1F70E94A5070C9477170C94EB
:100090000000823451F1833420F4813409F07BC0B4
:1000A00007C0833409F43EC0843409F074C057C0DB
:1000B000413069F42AB381E090E0AC0102C0440F02
:1000C000551F6A95E2F7BA01622B6ABB08952AB3FD
:1000D00081E090E0AC0102C0440F551F6A95E2F741
:1000E000BA01609562236ABB0895413069F427B371
:1000F00081E090E0AC0102C0440F551F6A95E2F721
:10010000BA01622B67BB089527B381E090E0AC0190
:1001100002C0440F551F6A95E2F7BA016095622349
:1001200067BB0895413069F424B381E090E0AC01ED
:1001300002C0440F551F6A95E2F7BA01622B64BBF7
:10014000089524B381E090E0AC0102C0440F551F34
:100150006A95E2F7BA016095622364BB0895413065
:1001600069F421B381E090E0AC0102C0440F551F57
:100170006A95E2F7BA01622B61BB089521B381E071
:1001800090E0AC0102C0440F551F6A95E2F7BA0136
:100190006095622361BB0895823451F1833420F469
:1001A000813409F07BC007C0833409F43EC0843435
:1001B00009F074C057C0413069F42BB381E090E07E
:1001C000AC0102C0440F551F6A95E2F7BA01622BD9
:1001D0006BBB08952BB381E090E0AC0102C0440FEB
:1001E000551F6A95E2F7BA01609562236BBB0895CB
:1001F000413069F428B381E090E0AC0102C0440FC3
:10020000551F6A95E2F7BA01622B68BB089528B3BF
:1002100081E090E0AC0102C0440F551F6A95E2F7FF
:10022000BA016095622368BB0895413069F425B333
:1002300081E090E0AC0102C0440F551F6A95E2F7DF
:10024000BA01622B65BB089525B381E090E0AC0153
:1002500002C0440F551F6A95E2F7BA016095622308
:1002600065BB0895413069F422B381E090E0AC01B0
:1002700002C0440F551F6A95E2F7BA01622B62BBB8
:10028000089522B381E090E0AC0102C0440F551FF5
:100290006A95E2F7BA016095622362BB08958234E1
:1002A000F1F0833420F4813409F04FC006C0833468
:1002B00041F1843409F049C036C029B381E090E0AF
:1002C000062E02C0880F991F0A94E2F730E08223BD
:1002D000932302C0959587956A95E2F7089526B312
:1002E00081E090E0062E02C0880F991F0A94E2F781
:1002F00030E08223932302C0959587956A95E2F7B3
:10030000089523B381E090E0062E02C0880F991F64
:100310000A94E2F730E08223932302C095958795F3
:100320006A95E2F7089520B381E090E0062E02C0BE
:10033000880F991F0A94E2F730E08223932302C0CA
:10034000959587956A95E2F7089580E0089582343F
:10035000B9F0833418F48134C9F505C08334E9F069
:100360008434A1F527C02BB381E090E0AC0102C03A
:10037000440F551F6A95E2F7BA0162276BBB0895D7
:1003800028B381E090E0AC0102C0440F551F6A958C
:10039000E2F7BA01622768BB089525B381E090E0D7
:1003A000AC0102C0440F551F6A95E2F7BA016227FB
:1003B00065BB089522B381E090E0AC0102C0440F18
:1003C000551F6A95E2F7BA01622762BB089582342D
:1003D00061F0833418F4813469F405C0833439F052
:1003E000843441F406C06ABB089567BB089564BBBA
:1003F000089561BB0895823461F0833418F4813428
:1004000069F405C0833439F0843441F406C06BBB11
:10041000089568BB089565BB089562BB0895823452
:1004200061F0833418F4813471F405C0833439F0F9
:10043000843449F406C089B3089586B3089583B31C
:10044000089580B3089580E00895823451F1833493
:1004500020F4813409F07BC007C0833409F43EC026
:10046000843409F074C057C0413069F42BB381E083
:1004700090E0AC0102C0440F551F6A95E2F7BA0143
:10048000622B6BBB08952BB381E090E0AC0102C0FE
:10049000440F551F6A95E2F7BA01609562236BBB62
:1004A0000895413069F428B381E090E0AC0102C0C6
:1004B000440F551F6A95E2F7BA01622B68BB089595
:1004C00028B381E090E0AC0102C0440F551F6A954B
:1004D000E2F7BA016095622368BB0895413069F480
:1004E00025B381E090E0AC0102C0440F551F6A952E
:1004F000E2F7BA01622B65BB089525B381E090E075
:10050000AC0102C0440F551F6A95E2F7BA0160952D
:10051000622365BB0895413069F422B381E090E025
:10052000AC0102C0440F551F6A95E2F7BA01622B75
:1005300062BB089522B381E090E0AC0102C0440F99
:10054000551F6A95E2F7BA016095622362BB089570
:100550006F70823481F0833418F48134F1F405C073
:10056000833479F08434C9F412C08BB3807F8BBBA1
:100570008BB3862B8BBB88B3807F88BB88B3862BDD
:1005800088BB85B3807F85BB85B3862B85BB82B353
:10059000807F82BB82B3682B62BB08956295607FC7
:1005A000823481F0833418F48134F1F405C083344B
:1005B00079F08434C9F412C08BB38F708BBB8BB3CA
:1005C000862B8BBB88B38F7088BB88B3862B88BB88
:1005D00085B38F7085BB85B3862B85BB82B38F7047
:1005E00082BB82B3682B62BB0895442341F4682325
:1005F000792381E06115710551F480E008959B0134
:100600002823392381E06217730709F080E00895F9
:10061000CF93DF938BE090E00E949E04EC01009763
:1006200031F0FC0111921192CF010E94EA068C2F49
:100630009D2FDF91CF910895AF92BF92CF92DF921D
:10064000EF92FF920F931F93CF93DF935C016B01A7
:10065000E42EF22E0E94DC10F501C081D181CE0182
:10066000B6014F2D0E94F502882351F0EE2001F1D2
:10067000C094D094CC22DD22F501D182C08218C072
:1006800001151105A9F0EE2019F460E070E002C038
:1006900060E071E0F11074606C297D29C50102965B
:1006A000A8010E9469130E94A111882339F404C093
:1006B0000E94A111CE0121C00E9493080E94EF1454
:1006C000EC0191FD18C00FB6F8940F92F501C081AE
:1006D000D181CE01B6014F2D0E94F502882349F049
:1006E000EE2039F0C094D094CC22DD22F501D182E5
:1006F000C0820F900FBECE019070DF91CF911F91FD
:100700000F91FF90EF90DF90CF90BF90AF90089542
:10071000FC010FB6F8940F928081918160957095DD
:1007200068237923718360830F900FBE0895FC01C5
:10073000808191810895AF92BF92CF92DF92EF9224
:10074000FF920F931F93CF93DF938C01EB010F2E3A
:10075000F5E0CF2EDD24F02DC80ED91E0E94DC104E
:10076000D8011796ED91FC9118978D919C91119756
:100770008C2B9D2B11969C938E93CE16DF06C1F188
:10078000AA24BB24FF24F394EE2401C0FE01C281FD
:10079000D38180819181BC0160709C01307092FD99
:1007A0000BC0D8018D919C911197822393234F2DDB
:1007B000009769F44E2D0BC0D8018D919C91119733
:1007C000822393234F2D2817390709F04E2D4423F8
:1007D00059F070FF02C0A22AB32AD8016D917C9112
:1007E0007260CF010E94CD13CC16DD0679F602C0EF
:1007F000AA24BB24C50180959095F801A080B18002
:10080000A822B922B182A0820E94A111D8018C91A4
:1008100011969C911197DF91CF911F910F91FF90AD
:10082000EF90DF90CF90BF90AF900895AF92BF92BE
:10083000CF92DF92EF92FF920F931F93CF93DF93AC
:100840006C01EB017A0159010E94DC10F601008174
:100850001181C601BE010E949B03C02BD12BC70191
:100860008C239D238E159F0551F480959095F6015C
:1008700020813181822393239183808312C0A1142C
:10088000B10461F0B7017560C6010296A5010E942E
:1008900069130E94A111882349F406C0F601C081A2
:1008A000D1810E94A1111CC00E9493080E94EF14E4
:1008B00091FD14C00FB6F8940F92F60180819181DA
:1008C0009701282339232E153F0531F420953095C3
:1008D00028233923318320830F900FBEEC01D07081
:1008E0008C2F9D2FDF91CF911F910F91FF90EF9053
:1008F000DF90CF90BF90AF900895CF93DF93EC013E
:100900000E94DC108A81882349F08F81988560E0FD
:1009100072E00E94CD138A818823B9F7CE010E942C
:100920003E050E94A111DF91CF910895BA010E9466
:100930009B030895BA010E94880308950F931F93A3
:10094000CF93DF93EC010E94DC1080917C00882320
:10095000F9F486E890E090937E0080937D001092F9
:10096000800010927F008FE193E090938400809349
:100970008300E3E8F0E01292129290938900809352
:100980008800F0938700E093860081E080937C00EC
:10099000209709F462C09E012C5F3F4F239683E0AD
:1009A000CE31D80708F05CC0E0917D00F0917E0068
:1009B000ADE7B0E002C0DF01FC01828193818217C4
:1009C000930720F4808191810097A9F7C0E0E13876
:1009D000FC0709F448C08D919C9111978C010C5F24
:1009E0001F4F8081918111969C938E938281938178
:1009F000821B930B8930910518F1AF01420F531FF1
:100A0000DA0113969C938E93129733832283129666
:100A10002D913C9113976DE770E001C0BD01EB0192
:100A2000A881B98112968D919C9113978217930793
:100A3000A8F3EA01B983A883DB0111965C934E9376
:100A4000809160009091610022813381821B930B21
:100A5000909361008093600008C000E010E005C042
:100A600000E010E002C000E010E00E94A111802F21
:100A7000912FDF91CF911F910F9108950F931F93A5
:100A8000CF93DF93EC01009739F18C0104501040B3
:100A90000E94DC10F80122813381ADE7B0E001C093
:100AA000DF01ED91FC911197828193818217930769
:100AB000B8F32497F983E8830D931C938091600029
:100AC000909161002A813B81820F931F9093610076
:100AD000809360000E94A111DF91CF911F910F912F
:100AE000089580916000909161000895089584E4D4
:100AF00060E041E00E94490084E461E041E00E943E
:100B0000490084E462E041E00E94490084E463E03B
:100B100041E00E94490084E464E040E00E94490012
:100B200084E465E040E00E94490084E466E040E03F
:100B30000E94490084E467E040E00E94490084E4A8
:100B400064E041E00E94250284E465E041E00E9407
:100B5000250284E466E041E00E94250284E467E027
:100B600041E00E94250208950F931F93CF93DF93D6
:100B7000CDB7DEB760970FB6F894DEBF0FBECDBF1E
:100B8000DE011196E2E6F0E080E101900D928150E5
:100B9000E1F700E084E460E041E00E94CC0084E4FE
:100BA00061E041E00E94CC0084E462E041E00E9408
:100BB000CC0084E463E041E00E94CC0084E4602F38
:100BC00040E00E94CC0010E0612F6C5F84E40E9442
:100BD0004F01882361F4E02FF0E0EE0FFF1FEE0FCE
:100BE000FF1FE10FF11DEC0FFD1F818104C01F5F8E
:100BF000143051F70BC060960FB6F894DEBF0FBEED
:100C0000CDBFDF91CF911F910F9108950F5F0430F9
:100C100009F68FEFF0CF82E460E041E00E94CC0063
:100C20008FE99FE00197F1F700C0000082E460E0E7
:100C300040E00E94CC008FE99FE00197F1F700C0EF
:100C400000000895682F81E40E94FB0182E461E0C6
:100C500040E00E94CC000E940B068FEC97E00197C9
:100C6000F1F700C0000008958FEF91EEA4E08150ED
:100C70009040A040E1F700C0000081E460E041E066
:100C80000E94490081E461E041E00E94490081E462
:100C900062E041E00E94490081E463E041E00E949B
:100CA000490081E464E041E00E94490081E465E09C
:100CB00041E00E94490081E466E041E00E94490071
:100CC00081E467E041E00E94490082E460E041E0A5
:100CD0000E94490082E462E041E00E94490082E40F
:100CE00061E041E00E94490082E462E040E00E944D
:100CF000CC0088E30E942206AFECB7E01197F1F731
:100D000000C000008EE00E9422068FEC97E0019761
:100D1000F1F700C0000081E00E942206AFE1BEE4CE
:100D20001197F1F700C0000086E00E9422068FECC8
:100D300097E00197F1F700C000000895682F81E463
:100D40000E94FB0182E461E041E00E94CC000E942D
:100D50000B068FEC97E00197F1F700C000000895B3
:100D6000CF93DF93EC018881882331F021960E9494
:100D70009E0689918823D9F7DF91CF91089581E06C
:100D80000E9422068FE19EE40197F1F700C0000067
:100D90000895282F2150223070F4613170F46623B9
:100DA00071F0813019F4962F91580AC0823041F4C5
:100DB000962F915405C090E803C090E801C090E8D8
:100DC000892F0E9422068FEC97E00197F1F700C06F
:100DD00000000895FC010396928381832FEF3FEF7B
:100DE0003483238396838583908787831082089535
:100DF000FC01118610860895CF93DF93FB01DC017F
:100E00001196CD91DC911297D383C2832C813D81C1
:100E100035832483AC81BD8113967C936E931297A6
:100E20007D836C8391878087FC0120812F5F2083E5
:100E3000DF91CF910895CF93DF93AC01EB0128812F
:100E400039818FEF2F3F380721F4FA01A781B08550
:100E50000DC0DA01139601C0DF011296ED91FC91ED
:100E600013978081918128173907B0F71296ED9179
:100E7000FC911397FB83EA83D583C483BD83AC8342
:100E80001396DC93CE93129759874887FA01808195
:100E90008F5F8083DF91CF910895CF93DF93FC0123
:100EA000C085D185A281B3818481958115969C935B
:100EB0008E931497A481B5818281938113969C931C
:100EC0008E931297A981BA81AE17BF0731F4149699
:100ED0008D919C9115979A838983118610868881BC
:100EE00081508883DF91CF910895CF93DF930F9244
:100EF000CDB7DEB78091140490911504BE016F5FE9
:100F00007F4F48EE53E020E00E94BA0B89810E9497
:100F10009E06F0CFCF93DF930F92CDB7DEB70E943E
:100F2000B40589838F3FD9F38091140490911504FF
:100F3000BE016F5F7F4F48EE53E020E00E94970AAA
:100F40008CE291E00E945912EACF0E9477050E943C
:100F500034068AE897E062E770E044E650E020E07B
:100F600030E002E0EE24FF240E94130E85E797E0B4
:100F700064E770E044E650E020E030E001E00E94E9
:100F8000130E85E061E040E00E946E0A9093150424
:100F9000809314040E94AC10FFCF21E1FC01208358
:100FA000319732E23083FC013297A3E3A083FC0146
:100FB00033976083FC0134977083FC01359710826E
:100FC000FC01369760E86083FC0137971082FC01D2
:100FD000389762E06083FC01399763E06083FC012D
:100FE0003A9764E06083FC013B9765E06083FC0115
:100FF0003C9766E06083FC013D9767E06083FC01FD
:101000003E9768E06083FC013F9769E06083FC01E4
:10101000709760E16083FC0171972083FC017297F7
:1010200022E12083FC01739723E12083FC01749764
:1010300024E12083FC01759725E12083FC0176974C
:1010400026E12083FC01779727E12083FC01789734
:1010500028E12083FC01799729E12083FC017A971C
:1010600020E22083FC017B9721E22083FC017C9716
:101070003083FC017D9723E22083FC017E9740832F
:10108000FC017F975083FC01B09726E22083FC018E
:10109000B19727E22083FC01B29728E22083FC016C
:1010A000B39729E22083FC01B49720E32083FC015D
:1010B000B59721E32083869708951BBC8CE78ABDF2
:1010C0008BE08EBD89B7806189BFA091A503B091E7
:1010D000A603CD91CDBFDD91DEBFFF91EF91DF91F2
:1010E000CF91BF91AF919F918F917F916F915F91C0
:1010F0004F913F912F911F910F91FF90EF90DF90B3
:10110000CF90BF90AF909F908F907F906F905F90A7
:101110004F903F902F901F900F900FBE0F9008950B
:1011200081E0089508950F920FB6F8940F921F92E0
:1011300011242F923F924F925F926F927F928F92E3
:101140009F92AF92BF92CF92DF92EF92FF920F9356
:101150001F932F933F934F935F936F937F938F933F
:101160009F93AF93BF93CF93DF93EF93FF93A091A0
:10117000A503B091A6030DB60D920EB60D920E9476
:10118000AC12A091A503B091A603CD91CDBFDD9186
:10119000DEBFFF91EF91DF91CF91BF91AF919F9112
:1011A0008F917F916F915F914F913F912F911F91FF
:1011B0000F91FF90EF90DF90CF90BF90AF909F90F6
:1011C0008F907F906F905F904F903F902F901F90E7
:1011D0000F900FBE0F9008950F920FB6F8940F92D4
:1011E0001F9211242F923F924F925F926F927F92A3
:1011F0008F929F92AF92BF92CF92DF92EF92FF9227
:101200000F931F932F933F934F935F936F937F930E
:101210008F939F93AF93BF93CF93DF93EF93FF93FE
:10122000A091A503B091A6030DB60D920EB60D9236
:101230000E94FC10882311F00E94AC12A091A5031B
:10124000B091A603CD91CDBFDD91DEBFFF91EF91AF
:10125000DF91CF91BF91AF919F918F917F916F91CE
:101260005F914F913F912F911F910F91FF90EF90C0
:10127000DF90CF90BF90AF909F908F907F906F90B6
:101280005F904F903F902F901F900F900FBE0F9048
:1012900008950E94EC0818950FB6F8940F92FC017F
:1012A000928D0F900FBE81E0911180E00895FC01B6
:1012B000448D4423C1F026813781240F311D3783AB
:1012C0002683A281B3812A173B0720F02081318138
:1012D0003783268336812781862F972F632F722F9E
:1012E00050E00E946E170895EF92FF920F931F93A4
:1012F000CF938C010FB6F8940F92FC01C68D1C168B
:10130000CCF48189882331F415C0F80181898823C0
:1013100041F410C00F2EF1E1EF2EFF24F02DE00E6E
:10132000F11EC7010E948213882311F00E94471406
:10133000C15059F78FEFF801868F0F900FBE0FB68F
:10134000F8940F92F801C58D1C16C4F4808588238B
:1013500031F414C0F8018085882339F40FC0EE24DD
:10136000FF246894E3F8E00EF11EC7010E94821387
:10137000882311F00E944714C15061F78FEFF801E4
:10138000858F0F900FBECF911F910F91FF90EF901F
:1013900008950F931F93CF93DF93EC01142F0A8DC1
:1013A0004C8D442361F488819981009709F042C0F3
:1013B0008A819B810E94AE141B821A8242C0112333
:1013C000B9F48C819D8150E00E946E172C8D8C8128
:1013D0009D81820F911D9D838C832A813B81821781
:1013E000930750F1888199819D838C8380E029C087
:1013F0008E819F8150E00E946E174C8D50E0509579
:1014000041955F4F8E819F81840F951F9F838E83AF
:10141000288139818217930730F48A819B81840F58
:10142000951F9F838E83123049F4002349F00150A9
:1014300080E007C080E005C080E003C080E001C01C
:1014400080E00F5F0A8FDF91CF911F910F91089578
:10145000CF93DF93EC010FB6F8940F924881598136
:101460002B8D30E0EC8DF0E02E9FC0012F9F900D72
:101470003E9F900D1124840F951F9B838A831A8EA3
:101480005D834C83C9010197E89F9001E99F300D6E
:10149000F89F300D1124240F351F3F832E838FEFCB
:1014A0008D8F8E8F662361F48885882389F0CE0125
:1014B00008960E948213882359F00E94930808C05E
:1014C000CE0108960E94EA06CE0141960E94EA06E5
:1014D0000F900FBE81E0DF91CF9108950F931F937E
:1014E000CF93DF93082F162F662321F0689FC0014A
:1014F000112402C080E090E04F960E949E04EC010F
:10150000009771F0112319F49983888303C04F96D3
:10151000998388830B8F1C8FCE0161E00E94280A7B
:101520008C2F9D2FDF91CF911F910F9108958F9256
:101530009F92BF92CF92DF92EF92FF920F931F93F1
:10154000CF93DF9300D000D00F92CDB7DEB78C01E0
:101550004B015D834C83E22EFF24BB24B394CC2447
:10156000DD246894C3F8C80ED91E0FB6F8940F9204
:10157000F801928D838D981718F0F2E0EF16D1F4F0
:10158000C801B4014E2D0E94C909F801918999231F
:1015900049F0C80141960E948213882339F00E94C5
:1015A000930804C0882311F00E9493080F900FBE87
:1015B00081E052C08C819D81009721F40F900FBE75
:1015C00080E04AC0FF2029F4CE0101960E94071452
:1015D000FB2C0F900FBE0E94DC100FB6F8940F92F8
:1015E000F801858D8F3F09F4158EF801868D8F3FA8
:1015F00009F4168E0F900FBECE010196BE016C5FEE
:101600007F4F0E941214882309F50FB6F8940F92A9
:10161000F801928D0F900FBEF801838D981781F419
:101620006C817D81C6010E945713C8010E94740914
:101630000E94A111882309F098CF0E94930895CFAA
:10164000C8010E9474090E94A1118FCFC8010E9495
:1016500074090E94A11180E00F900F900F900F90DD
:101660000F90DF91CF911F910F91FF90EF90DF903E
:10167000CF90BF909F908F900895CF93DF93482F86
:1016800081E060E00E946E0AEC01009761F01B822D
:101690001A82198218821E8260E070E040E050E0F9
:1016A00020E00E94970A8C2F9D2FDF91CF91089503
:1016B000EF92FF920F931F93CF938C017A01FC015D
:1016C000928D838D981710F02230F1F4F801C68DB9
:1016D000C801422F0E94C909CF3F89F4F8018189CE
:1016E0008823A1F0C80141960E948213882381F0CB
:1016F000E114F10479F081E0F70180830CC0CF5F41
:10170000F801C68F81E007C080E005C081E003C01A
:1017100081E001C081E0CF911F910F91FF90EF9088
:101720000895CF93DF93FC01EB01828D938D891790
:10173000B8F4968D8F5F828F9F3F71F481898823E3
:1017400089F0CF0141960E948213882369F0209787
:1017500069F081E088830BC09F5F968F81E007C0AE
:1017600080E005C081E003C081E001C081E0DF913D
:10177000CF9108958F929F92AF92BF92CF92DF92B6
:10178000EF92FF920F931F93CF93DF9300D000D07F
:101790000F92CDB7DEB77C014B015D834C83C22E27
:1017A00000E0DD24D3940F2EF1E1AF2EBB24F02D09
:1017B000A80EB91E0FB6F8940F92F701128D1123DF
:1017C00099F1A680B780C701B4010E945709CC20C7
:1017D000C9F41150F701128F80819181009729F48B
:1017E0000E940715F70193838283F7018085882380
:1017F000B9F0C70108960E948213882389F00E94DD
:1018000093080EC0F701B782A6828189882341F030
:10181000C70141960E948213882311F00E94930809
:101820000F900FBE81E061C08C819D81009721F4F3
:101830000F900FBE80E059C0002329F4CE0101961D
:101840000E9407140D2D0F900FBE0E94DC100FB6E2
:10185000F8940F92F701858D8F3F09F4158EF701EB
:10186000868D8F3F09F4168E0F900FBECE01019624
:10187000BE016C5F7F4F0E941214882351F5C7018F
:101880000E944C098823F9F0F7018081918100972B
:1018900051F40FB6F8940F92F701828193810E9460
:1018A00050140F900FBE6C817D81C5010E945713AB
:1018B000C7010E9474090E94A111882309F07ACF00
:1018C0000E94930877CFC7010E9474090E94A1115A
:1018D00071CFC7010E9474090E94A111C7010E9423
:1018E0004C09882309F466CF80E00F900F900F9089
:1018F0000F900F90DF91CF911F910F91FF90EF907C
:10190000DF90CF90BF90AF909F908F900895EF920F
:10191000FF920F931F93CF93DF938C017A01FC0109
:10192000C28DCC23E9F0D58D0E945709C150F80132
:10193000C28FDF3F81F480858823A1F0C80108961B
:101940000E948213882381F0E114F10479F081E090
:10195000F70180830CC0DF5FF801D58F81E007C0FD
:1019600080E005C081E003C081E001C081E0DF913B
:10197000CF911F910F91FF90EF9008950F931F93B8
:10198000CF93DF93EC018A8D882349F00E811F816C
:10199000CE010E9457091F830E8381E001C080E0C1
:1019A000DF91CF911F910F9108950FB6F8940F9288
:1019B000FC01828D0F900FBE0895FC010FB6F894C4
:1019C0000F92928D0F900FBE838D891B0895FC019D
:1019D000828D0895FC01928D81E0911180E008953F
:1019E000FC01228D81E0938D291380E00895DC01B4
:1019F0008091160490911704009751F0EAE1F4E009
:101A000021E030E0A90180819181009779F402C042
:101A100040E050E0FA01EE0FFF1FEE0FFF1FEA5EFD
:101A2000FB4F71836083B383A28308952F5F3F4F81
:101A300034962830310531F70895AC0180911804AF
:101A4000909119048417950759F0ECE1F4E021E036
:101A500030E0B901808191818417950769F402C053
:101A600060E070E0FB01EE0FFF1FEE0FFF1FEA5E6C
:101A7000FB4F8081918108952F5F3F4F349628302E
:101A8000310539F780E090E00895AC0180911804A9
:101A9000909119048417950759F0ECE1F4E021E0E6
:101AA00030E0B901808191818417950779F402C0F3
:101AB00060E070E0FB01EE0FFF1FEE0FFF1FEA5E1C
:101AC000FB4F118210821382128208952F5F3F4FC5
:101AD00034962830310529F70895CF93DF93EC0130
:101AE0000E94450DCE010E943E05DF91CF910895E1
:101AF000FC018285938524E08930920761F4248972
:101B0000358983E0273F380741F081E02115310511
:101B100029F080E0089580E0089580E00895E09144
:101B2000B503F091B6038081882339F48FEF9FEFDE
:101B30009093A9038093A8030895E091B503F091D1
:101B4000B6030580F681E02D0680F781E02D8281C5
:101B500093819093A9038093A8030895EF92FF9235
:101B60001F93CF93DF93EC01162FE090AF03F0901B
:101B7000B0038091A5039091A60302960E944D07A1
:101B80008FEFCF3FD80769F4112359F06091A50377
:101B90007091A6036E5F7F4F89E094E00E94FC067F
:101BA0002FC0CE0DDF1DE091A503F091A603D383D6
:101BB000C283CE15DF0568F48091B3039091B4031E
:101BC0006091A5037091A6036E5F7F4F0E941B0773
:101BD00017C08091B5039091B6036091A5037091F1
:101BE000A6036E5F7F4F0E941B078091A803909110
:101BF000A903C817D90720F4D093A903C093A80359
:101C0000DF91CF911F91FF90EF900895CF93DF93D5
:101C1000EC018F89988D0E943E05CE010E943E0501
:101C2000DF91CF9108952F923F924F925F926F92E2
:101C30007F928F929F92AF92BF92DF92EF92FF922C
:101C40000F931F93CF93DF933C015B01EA012901BE
:101C5000D02E4701CA010E949E047C01009709F41E
:101C6000EDC08AE290E00E949E048C01009781F012
:101C7000FC01F08EE78A219717012C0E3D1EF5011D
:101C80008081F801818FF5018081882331F413C0B0
:101C9000C7010E943E058FEFD6C0E8016A96D501C4
:101CA000119681E0FD019D9199939081992319F0FE
:101CB0008F5F8A30B9F7F80112A2CD2DC53008F038
:101CC000C4E0F801C68BC3A314A2EE24FF246894D9
:101CD000E1F8E00EF11EC7010E94F806C8010C965B
:101CE0000E94F806F8011187008785E090E08C1BC0
:101CF000910995878487138B028B15A216A217A2D0
:101D000010A611A6C101B301A2010E94CD07F801DE
:101D1000918380838114910419F0F401118300836D
:101D20000FB6F8940F928091B1038F5F8093B10347
:101D30008091A5039091A603009709F03FC01093EE
:101D4000A6030093A5038091B103813009F047C039
:101D5000C0E0D0E0CE01880F991F880F991F880F2F
:101D6000991F8C0F9D1F88549C4F0E94EA06219654
:101D7000C530D10579F7C5EED3E0CE010E94EA0661
:101D80000F2EFEEEAF2EF3E0BF2EF02DC5010E9408
:101D9000EA0687EF93E00E94EA0680E094E00E9462
:101DA000EA0689E094E00E94EA06D093B603C09365
:101DB000B503B092B403A092B30311C08091AD03F8
:101DC000882369F4E091A503F091A6039689F801B0
:101DD0008689891720F01093A6030093A5038091AC
:101DE000B7038F5F8093B703F80186899091AE03A4
:101DF000981710F48093AE0390E09C01220F331FDC
:101E0000220F331F220F331F820F931F88549C4FC2
:101E1000B7010E94FC060F900FBE8091AD0388238E
:101E200079F0E091A503F091A6039689F8018689DF
:101E3000981740F40E94930881E005C08FEF03C01B
:101E400081E001C081E0DF91CF911F910F91FF9060
:101E5000EF90DF90BF90AF909F908F907F906F90AA
:101E60005F904F903F902F9008950F931F93CF93C3
:101E7000DF930FB6F8940F92009729F4C091A50351
:101E8000D091A60301C0EC018E010E5F1F4FC80167
:101E90000E944D078C899D89009721F0CE010C96F8
:101EA0000E944D078091B7038F5F8093B7038091A5
:101EB000A5039091A603C817D90759F480E094E0D0
:101EC000B8010E94FC068091B2038F5F8093B20339
:101ED0000AC08091B10381508093B103CE010E946A
:101EE000060E0E948F0D0F900FBE8091AD038823C8
:101EF00049F08091A5039091A603C817D90711F462
:101F00000E949308DF91CF911F910F9108950FB612
:101F1000F8940F92009729F4E091A503F091A6039D
:101F200001C0FC010F900FBE86890895009729F427
:101F3000E091A503F091A60301C0FC0186890895F4
:101F4000EF92FF921F93CF93DF93653008F064E028
:101F50000FB6F8940F92009729F4C091A503D09181
:101F6000A60301C0EC012BA1261709F461C02617B6
:101F700088F48091A5039091A603C817D907A1F012
:101F8000E091A503F091A60311E08689681768F433
:101F900010E00BC08091A5039091A60311E0C81733
:101FA000D90719F010E001C010E08E89281709F454
:101FB0006E8B6BA32C853D85332334F025E030E018
:101FC000261B31093D872C8790E09C01220F331F8F
:101FD000220F331F220F331F820F931F88549C4FF1
:101FE0002A853B8528173907F9F4EE24FF246894E5
:101FF000E1F8EC0EFD1EC7010E944D078E899091FD
:10200000AE03981710F48093AE0390E09C01220F6A
:10201000331F220F331F220F331F820F931F885449
:102020009C4FB7010E94FC06112311F00E949308F7
:102030000F900FBEDF91CF911F91FF90EF90089509
:102040000F931F93CF93DF93EC010097B9F1809129
:10205000A5039091A603C817D90781F10FB6F8948C
:102060000F92CE010E94780D882331F18E010E5F10
:102070001F4FC8010E944D078E899091AE0398179B
:1020800010F48093AE0390E09C01220F331F220FC7
:10209000331F220F331F820F931F88549C4FB801A8
:1020A0000E94FC06E091A503F091A6039E89868913
:1020B000981710F00E9493080F900FBEDF91CF91F8
:1020C0001F910F910895EF92FF921F93CF93DF938B
:1020D000EC010E94780D8823B9F18091A703882331
:1020E00051F5E091A503F091A60311E09E89868940
:1020F000981708F410E0EE24FF246894E1F8EC0E41
:10210000FD1EC7010E944D078E899091AE0398175E
:1021100010F48093AE0390E09C01220F331F220F36
:10212000331F220F331F820F931F88549C4FB70118
:102130000E94FC060AC0BE01645F7F4F87EF93E0F8
:102140000E94FC0610E001C010E0812FDF91CF91CA
:102150001F91FF90EF900895EF92FF920F9381E20D
:1021600092E166E770E048EC50E020E030E000E00B
:102170000F2EF2E1EF2EF4E0FF2EF02D0E94130E51
:10218000813081F4F8948FEF9FEF9093A9038093AF
:10219000A80381E08093AD031092B0031092AF03C7
:1021A0000E945D080F91FF90EF900895F8941092AF
:1021B000AD030E94920808958091A7038F5F8093DA
:1021C000A70308950FB6F8940F928091AF039091F2
:1021D000B0030F900FBE08958091AF039091B003AC
:1021E00008958091B1030895009721F48091A5038B
:1021F0009091A60349960895CF92DF92EF92FF92B5
:102200000F931F93CF93DF938091A703882309F047
:1022100082C0C090AF03D090B0030894C11CD11C01
:10222000D092B003C092AF03C114D104B9F480912D
:10223000B5039091B6032091B3033091B40330936A
:10224000B6032093B5039093B4038093B3038091B6
:10225000AA038F5F8093AA030E948F0D8091A80329
:102260009091A903C816D90620F4FF245AC0FE2C69
:1022700003C0FF24EE24E394E091B503F091B6038C
:102280008081882339F48FEF9FEF9093A903809387
:10229000A80347C0E091B503F091B6030580F6812D
:1022A000E02DC681D7818A819B81C816D90628F482
:1022B0009093A9038093A80334C08E010E5F1F4F33
:1022C000C8010E944D078C899D89009721F0CE019D
:1022D0000C960E944D078E899091AE03981710F4CA
:1022E0008093AE0390E09C01220F331F220F331F17
:1022F000220F331F820F931F88549C4FB8010E94F6
:10230000FC06E091A503F091A6039E8986899817A3
:1023100008F0ADCFB1CF8091AC038F5F8093AC0359
:10232000FF248091AB03882311F0FF24F3948F2DB9
:10233000DF91CF911F910F91FF90EF90DF90CF90A1
:102340000895DF92EF92FF920F931F93CF93DF9345
:102350000FB6F8940F928091A70381508093A70342
:102360008091A703882309F05FC08091B10388237F
:1023700091F55DC0E091FC03F091FD03C681D7812A
:10238000CE010C960E944D078E010E5F1F4FC801B3
:102390000E944D078E899091AE03981710F4809398
:1023A000AE0390E09C01220F331F220F331F220F38
:1023B000331F820F931F88549C4FB8010E94FC0664
:1023C000E091A503F091A6039E898689981768F08D
:1023D000D092AB030AC0C0E0D0E00F2EF7EFEF2E93
:1023E000F3E0FF2EF02DDD24D394F70180818823C4
:1023F00009F6209711F00E948F0DC091AC03CC23F9
:1024000059F001E00E94FC10882311F00093AB0307
:10241000C150C1F71092AC038091AB03882331F017
:102420000E94930881E003C080E001C080E00F902B
:102430000FBEDF91CF911F910F91FF90EF90DF9032
:10244000089500E014E00F2EF8EBEF2EF3E0FF2EDE
:10245000F02D24C00E94DC10F801C0810E94A1115F
:10246000CC23E1F00FB6F8940F92E0910504F091BF
:102470000604C681D781CE0102960E944D07809145
:10248000B10381508093B1038091B2038150809356
:10249000B2030F900FBECE010E94060E8091B203D0
:1024A0008823C1F6F70180818230C0F30E9493082F
:1024B000F5CFCF93DF93EC01009751F00E94DC1031
:1024C000CE0160E00E94AE0D0E94A111882311F49C
:1024D0000E949308DF91CF9108950F931F93CF939C
:1024E000DF938C01EB010E94DC108091AF0390918F
:1024F000B003F80120813181C20FD31F82179307E7
:1025000048F4C217D307F8F4D183C0838C179D0712
:1025100078F407C0C217D30790F08C179D0778F0A6
:1025200012C09E01281B390BC90160E00E94AE0D4C
:102530000E94A111882359F40E94930808C0F80151
:10254000D183C083EECFF801D183C083F1CFDF9177
:10255000CF911F910F9108958091A703882321F0B7
:1025600081E08093AB0308951092AB032091AE03FA
:10257000822F90E0FC01EE0FFF1FEE0FFF1FEE0F0A
:10258000FF1FE80FF91FE854FC4F3081332389F413
:102590002150822F90E0FC01EE0FFF1FEE0FFF1F76
:1025A000EE0FFF1FE80FF91FE854FC4F3081332373
:1025B00079F3DC01AA0FBB1FAA0FBB1FAA0FBB1F19
:1025C0008A0F9B1FDC01A854BC4F1196ED91FC9122
:1025D00012970280F381E02D1296FC93EE931197EF
:1025E000CD010396E817F90731F4828193811296A1
:1025F0009C938E9311971196ED91FC911297868181
:1026000097819093A6038093A5032093AE0308952A
:102610000F931F93CF93DF930FB6F8940F92009709
:1026200029F40091A5031091A60301C08C01E801D3
:102630002296CE010E944D07F80184899589009762
:1026400021F0C8010C960E944D0789E094E0BE017C
:102650000E94FC060F900FBE8091AD03882339F0D5
:102660000FB6F8940F920E948F0D0F900FBE8091BD
:10267000A5039091A60308171907A1F48091AD0353
:10268000882319F00E9493080DC08091B1039091A6
:102690000904981729F41092A6031092A50302C00A
:1026A0000E94AC12DF91CF911F910F910895CF93AB
:1026B000DF93EB016091A5037091A603645F7F4FE8
:1026C0000E941B07CE0161E00E94AE0DDF91CF9109
:1026D0000895CF93DF93EA01E091A503F091A6035B
:1026E0007068758764876091A5037091A603645F25
:1026F0007F4F0E94FC06CE0161E00E94AE0DDF918B
:10270000CF9108950F931F93CF93DF93DC0115961C
:10271000ED91FC91169706811781E8012C96CE0168
:102720000E944D078091A7038823E9F4E8012296CF
:10273000CE010E944D07F80186899091AE0398174B
:1027400010F48093AE0390E09C01220F331F220F00
:10275000331F220F331F820F931F88549C4FBE01DB
:102760000E94FC0605C087EF93E0BE010E94FC06B4
:10277000E091A503F091A603D80156969C91569737
:102780008689891720F481E08093AB0301C080E043
:10279000DF91CF911F910F9108950F931F93CF93C6
:1027A000DF937068FC0171836083C681D7810E94CA
:1027B0004D078E010E5F1F4FC8010E944D078E8985
:1027C0009091AE03981710F48093AE0390E09C01B3
:1027D000220F331F220F331F220F331F820F931F2D
:1027E00088549C4FB8010E94FC06E091A503F0912B
:1027F000A6039E898689891720F481E08093AB0324
:1028000001C080E0DF91CF911F910F910895FC01ED
:102810008091AA0380838091AF039091B00392834B
:1028200081830895FC01DB010FB6F8940F9260914B
:10283000AF037091B0034D915C9111978FEF4F3FB3
:102840005807E9F08091AA039081981729F08181B7
:10285000928168177907A8F4818192819B01281BD6
:10286000390B2417350778F4861B970B840F951FB7
:102870008D939C93CF010E94071480E005C080E0F7
:1028800003C081E001C081E00F900FBE089581E098
:102890008093AB0308958091A5039091A6030895BA
:1028A0000F931F93CF93DF93EC01009709F451C06E
:1028B0008E89E091A503F091A6039689891708F007
:1028C00048C02C853D8533235CF0E091A503F09151
:1028D000A603968925E030E0291B31093D872C8726
:1028E00090E09C01220F331F220F331F220F331F52
:1028F000820F931F88549C4F2A853B8528173907E0
:1029000011F58E010E5F1F4FC8010E944D07E09127
:10291000A503F091A60386898E8B9091AE0398173C
:1029200010F48093AE0390E09C01220F331F220F1E
:10293000331F220F331F820F931F88549C4FB801FF
:102940000E94FC0606C0E091A503F091A6038689CB
:102950008E8BDF91CF911F910F9108950F931F934D
:10296000CF93DF93EC01009781F18CA181508CA370
:102970002E899BA1291759F1882359F58E010E5FE5
:102980001F4FC8010E944D074BA14E8B242F30E0F2
:1029900085E090E0821B930B9D878C878091AE032E
:1029A000841710F44093AE03C901880F991F880F54
:1029B000991F880F991F280F391FC90188549C4FF0
:1029C000B8010E94FC0681E005C080E003C080E001
:1029D00001C080E0DF91CF911F910F910895E091A8
:1029E000A503F091A60384859585E091A503F09158
:1029F000A603A091A503B091A60356964C915697B5
:102A000025E030E0241B3109358724870895809123
:102A1000A5039091A603009739F0E091A503F091EA
:102A2000A60384A18F5F84A38091A5039091A60340
:102A300008950F931F93CF93C82F0FB6F8940F925A
:102A4000E091A503F091A60385A196A1A7A1B0A549
:102A50000097A105B10579F4E091A503F091A603D3
:102A600081E081A76115710531F0CB0161E00E9421
:102A7000AE0D0E9493080F900FBE0FB6F8940F9200
:102A8000E091A503F091A60305A116A127A130A509
:102A90000115110521053105C1F0CC2349F0E09164
:102AA000A503F091A60315A216A217A210A60DC0A9
:102AB000E091A503F091A603D901C8010197A109EE
:102AC000B10985A396A3A7A3B0A7E091A503F091B0
:102AD000A60311A60F900FBE602F712F822F932F88
:102AE000CF911F910F9108958F929F92AF92BF92B5
:102AF000EF92FF920F931F93DC01CB0149015A0122
:102B00000FB6F8940F92E091A503F091A60321A5CA
:102B1000223019F1E091A503F091A60345A156A139
:102B200067A170A580959095A095B0958423952375
:102B3000A623B72385A396A3A7A3B0A7E091A503D7
:102B4000F091A60381E081A7E114F10431F0C701FF
:102B500061E00E94AE0D0E9493080F900FBE0FB669
:102B6000F8940F920115110569F0E091A503F09119
:102B7000A60385A196A1A7A1B0A5F80180839183A2
:102B8000A283B383E091A503F091A60381A58130D0
:102B9000B1F0E091A503F091A60385A196A1A7A1AC
:102BA000B0A580949094A094B09488229922AA22EF
:102BB000BB2285A296A2A7A2B0A681E001C080E0B8
:102BC000E091A503F091A60311A60F900FBE1F91EF
:102BD0000F91FF90EF90BF90AF909F908F900895CE
:102BE0000F931F93CF93DF93EC010FB6F8940F92DE
:102BF0000115110549F08DA19EA1AFA1B8A5F8015D
:102C000080839183A283B38339A582E089A7223090
:102C1000B9F0233018F4213051F505C02330E1F02C
:102C2000243029F51EC08DA19EA1AFA1B8A5482BC7
:102C3000592B6A2B7B2B4DA35EA36FA378A717C0DC
:102C40008DA19EA1AFA1B8A50196A11DB11D8DA317
:102C50009EA3AFA3B8A70BC04DA35EA36FA378A795
:102C600006C0323071F14DA35EA36FA378A7313057
:102C700051F58E010E5F1F4FC8010E944D078E89CE
:102C80009091AE03981710F48093AE0390E09C01EE
:102C9000220F331F220F331F220F331F820F931F68
:102CA00088549C4FB8010E94FC06E091A503F09166
:102CB000A6039E898689891740F40E94930881E0C3
:102CC00005C080E003C081E001C081E00F900FBE2D
:102CD000DF91CF911F910F910895EF92FF920F9383
:102CE0001F93CF93DF93EC010115110549F08DA1DE
:102CF0009EA1AFA1B8A5F80180839183A283B3837D
:102D000039A582E089A72230B9F0233018F42130A8
:102D100059F505C02330E1F0243031F51EC08DA1F6
:102D20009EA1AFA1B8A5842B952BA62BB72B8DA365
:102D30009EA3AFA3B8A718C08DA19EA1AFA1B8A5AF
:102D40000196A11DB11D8DA39EA3AFA3B8A70CC072
:102D50004DA35EA36FA378A707C0323009F441C02A
:102D60004DA35EA36FA378A73130E9F58091A70347
:102D70008823E9F48E010E5F1F4FC8010E944D07A2
:102D80008E899091AE03981710F48093AE0390E073
:102D90009C01220F331F220F331F220F331F820F7C
:102DA000931F88549C4FB8010E94FC0607C0BE01C7
:102DB000645F7F4F87EF93E00E94FC06E091A503DC
:102DC000F091A6039E898689891778F4E114F104AD
:102DD00021F081E0F701808309C081E08093AB039B
:102DE00005C080E003C081E001C081E0DF91CF91A8
:102DF0001F910F91FF90EF900895EF92FF920F9324
:102E00001F93CF93DF93EC018B0129A582E089A763
:102E10008DA19EA1AFA1B8A50196A11DB11D8DA345
:102E20009EA3AFA3B8A72130E9F58091A70388231B
:102E300001F5EE24FF246894E1F8EC0EFD1EC701B5
:102E40000E944D078E899091AE03981710F48093DD
:102E5000AE0390E09C01220F331F220F331F220F7D
:102E6000331F820F931F88549C4FB7010E94FC06AA
:102E700007C0BE01645F7F4F87EF93E00E94FC06AE
:102E8000E091A503F091A6039E898689891750F4E5
:102E90000115110521F081E0F801808303C081E074
:102EA0008093AB03DF91CF911F910F91FF90EF9033
:102EB0000895009729F4E091A503F091A60301C0BD
:102EC000FC010FB6F8940F9281A5823019F411A677
:102ED00081E001C080E00F900FBE0895FB01DC018E
:102EE00002C001900D9241505040D8F70895F894D7
:022EF000FFCF12
:102EF2001F033738392F3435362A3132332D4130DA
:0C2F02003D2B4D004E0049444C450000A2
:00000001FF
