S011000073656D6170686F72652E737265634F
S11300000C942A000C94380B0C9447000C94470071
S11300100C9447000C9447000C9447000C94C306BE
S11300200C9447000C9447000C9447000C94470030
S11300300C9447000C9447000C9447000C94470020
S11300400C9447000C9447000C9447000C94470010
S11300500C94470011241FBECFE5D8E0DEBFCDBF0E
S113006010E0A0E6B0E0E6ECFAE202C005900D92E2
S1130070AA36B107D9F714E0AAE6B0E001C01D9290
S1130080A432B107E1F70E94180B0C9461150C948B
S11300900000823451F1833420F4813409F07BC0B0
S11300A007C0833409F43EC0843409F074C057C0D7
S11300B0413069F42AB381E090E0AC0102C0440FFE
S11300C0551F6A95E2F7BA01622B6ABB08952AB3F9
S11300D081E090E0AC0102C0440F551F6A95E2F73D
S11300E0BA01609562236ABB0895413069F427B36D
S11300F081E090E0AC0102C0440F551F6A95E2F71D
S1130100BA01622B67BB089527B381E090E0AC018C
S113011002C0440F551F6A95E2F7BA016095622345
S113012067BB0895413069F424B381E090E0AC01E9
S113013002C0440F551F6A95E2F7BA01622B64BBF3
S1130140089524B381E090E0AC0102C0440F551F30
S11301506A95E2F7BA016095622364BB0895413061
S113016069F421B381E090E0AC0102C0440F551F53
S11301706A95E2F7BA01622B61BB089521B381E06D
S113018090E0AC0102C0440F551F6A95E2F7BA0132
S11301906095622361BB0895823451F1833420F465
S11301A0813409F07BC007C0833409F43EC0843431
S11301B009F074C057C0413069F42BB381E090E07A
S11301C0AC0102C0440F551F6A95E2F7BA01622BD5
S11301D06BBB08952BB381E090E0AC0102C0440FE7
S11301E0551F6A95E2F7BA01609562236BBB0895C7
S11301F0413069F428B381E090E0AC0102C0440FBF
S1130200551F6A95E2F7BA01622B68BB089528B3BB
S113021081E090E0AC0102C0440F551F6A95E2F7FB
S1130220BA016095622368BB0895413069F425B32F
S113023081E090E0AC0102C0440F551F6A95E2F7DB
S1130240BA01622B65BB089525B381E090E0AC014F
S113025002C0440F551F6A95E2F7BA016095622304
S113026065BB0895413069F422B381E090E0AC01AC
S113027002C0440F551F6A95E2F7BA01622B62BBB4
S1130280089522B381E090E0AC0102C0440F551FF1
S11302906A95E2F7BA016095622362BB08958234DD
S11302A0F9F0833420F4813409F052C006C0833459
S11302B051F1843409F04CC039C029B381E090E095
S11302C0062E02C0880F991F0A94E2F730E08223B9
S11302D0932302C0959587956A95E2F7982F38C0C5
S11302E026B381E090E0062E02C0880F991F0A947D
S11302F0E2F730E08223932302C0959587956A95AF
S1130300E2F7982F25C023B381E090E0062E02C0C7
S1130310880F991F0A94E2F730E08223932302C0E6
S1130320959587956A95E2F7982F12C020B381E0DE
S113033090E0062E02C0880F991F0A94E2F730E07D
S11303408223932302C0959587956A95E2F7982FA7
S1130350892F08958234B9F0833418F48134C9F5AF
S113036005C08334E9F08434A1F527C02BB381E0C0
S113037090E0AC0102C0440F551F6A95E2F7BA0140
S113038062276BBB089528B381E090E0AC0102C002
S1130390440F551F6A95E2F7BA01622768BB0895B6
S11303A025B381E090E0AC0102C0440F551F6A956B
S11303B0E2F7BA01622765BB089522B381E090E0B9
S11303C0AC0102C0440F551F6A95E2F7BA016227D7
S11303D062BB0895823461F0833418F4813469F483
S11303E005C0833439F0843441F406C06BBB0895EE
S11303F068BB089565BB089562BB0895823479F0A3
S1130400833418F48134C9F405C0833469F0843426
S1130410A1F40FC08BB3607F682B6BBB089588B3C6
S1130420607F682B68BB089585B3607F682B65BBCC
S1130430089582B3607F682B62BB0895823471F0A3
S1130440833418F48134A9F405C0833459F0843416
S113045081F40CC08BB38F708BBB089588B38F70FD
S113046088BB089585B38F7085BB089582B38F7060
S113047082BB0895442341F46823792381E0611504
S1130480710551F480E008959B012823392381E00C
S11304906217730709F080E00895CF93DF938BE030
S11304A090E00E94E303EC01009731F0FC0111920B
S11304B01192CF010E94BC048C2F9D2FDF91CF910C
S11304C00895AF92BF92CF92DF92EF92FF920F9373
S11304D01F93CF93DF935C016B01E42EF22E0E94F5
S11304E0C60EF501C081D181CE01B6014F2D0E9407
S11304F03A02882351F0EE2001F1C094D094CC222A
S1130500DD22F501D182C08218C001151105A9F0C0
S1130510EE2019F460E070E002C060E071E0F110D8
S113052074606C297D29C5010296A8010E945311AB
S11305300E948B0F882339F404C00E948B0FCE01D4
S113054021C00E940D060E94D912EC0191FD18C031
S11305500FB6F8940F92F501C081D181CE01B60196
S11305604F2D0E943A02882349F0EE2039F0C094BE
S1130570D094CC22DD22F501D182C0820F900FBE2F
S1130580CE019070DF91CF911F910F91FF90EF906A
S1130590DF90CF90BF90AF900895FC010FB6F89410
S11305A00F9280819181609570956823792371837E
S11305B060830F900FBE0895FC018081918108959E
S11305C0AF92BF92CF92DF92EF92FF920F931F935D
S11305D0CF93DF938C01EB010F2EF5E0CF2EDD24BA
S11305E0F02DC80ED91E0E94C60ED8011796ED91A3
S11305F0FC9118978D919C9111978C2B9D2B1196A2
S11306009C938E93CE16DF06C1F1AA24BB24FF244B
S1130610F394EE2401C0FE01C281D38180819181D3
S1130620BC0160709C01307092FD0BC0D8018D91AB
S11306309C911197822393234F2D009769F44E2D9B
S11306400BC0D8018D919C911197822393234F2D38
S11306502817390709F04E2D442359F070FF02C0C2
S1130660A22AB32AD8016D917C917260CF010E94B5
S1130670B711CC16DD0679F602C0AA24BB24C50145
S113068080959095F801A080B180A822B922B1820A
S1130690A0820E948B0FD8018C9111969C91119786
S11306A0DF91CF911F910F91FF90EF90DF90CF904A
S11306B0BF90AF900895AF92BF92CF92DF92EF9226
S11306C0FF920F931F93CF93DF936C01EB017A0199
S11306D059010E94C60EF60100811181C601BE01B6
S11306E00E94E002C02BD12BC7018C239D238E15C1
S11306F09F0551F480959095F601208131818223E4
S113070093239183808312C0A114B10461F0B701D3
S11307107560C6010296A5010E9453110E948B0FB9
S1130720882349F406C0F601C081D1810E948B0F51
S11307301CC00E940D060E94D91291FD14C00FB670
S1130740F8940F92F601808191819701282339232F
S11307502E153F0531F42095309528233923318314
S113076020830F900FBEEC01D0708C2F9D2FDF9152
S1130770CF911F910F91FF90EF90DF90CF90BF909A
S1130780AF900895CF93DF93EC010E94C60E8A8147
S1130790882349F08F81988560E072E00E94B71148
S11307A08A818823B9F7CE010E9483040E948B0FAB
S11307B0DF91CF910895BA010E94E0020895BA0131
S11307C00E94CD0208950F931F93CF93DF93EC0102
S11307D00E94C60E80916A008823F9F484E790E0B1
S11307E090936C0080936B0010926E0010926D00D9
S11307F08FE193E09093720080937100E1E7F0E061
S1130800129212929093770080937600F093750081
S1130810E093740081E080936A00209709F462C039
S11308209E012C5F3F4F239683E0CE31D80708F01A
S11308305CC0E0916B00F0916C00ABE6B0E002C0EC
S1130840DF01FC01828193818217930720F4808168
S113085091810097A9F7C0E0EF36FC0709F448C07E
S11308608D919C9111978C010C5F1F4F8081918118
S113087011969C938E9382819381821B930B893072
S1130880910518F1AF01420F531FDA0113969C939F
S11308908E9312973383228312962D913C91139752
S11308A06BE670E001C0BD01EB01A881B98112962D
S11308B08D919C91139782179307A8F3EA01B9834A
S11308C0A883DB0111965C934E9380916000909114
S11308D0610022813381821B930B9093610080938A
S11308E0600008C000E010E005C000E010E002C0B5
S11308F000E010E00E948B0F802F912FDF91CF91A9
S11309001F910F9108950F931F93CF93DF93EC01E1
S1130910009739F18C01045010400E94C60EF80172
S113092022813381ABE6B0E001C0DF01ED91FC919F
S113093011978281938182179307B8F32497F983DF
S1130940E8830D931C9380916000909161002A814B
S11309503B81820F931F90936100809360000E94FB
S11309608B0FDF91CF911F910F91089580916000BB
S11309709091610008950895FC0103969283818308
S11309802FEF3FEF34832383968385839087878378
S113099010820895FC01118610860895CF93DF9389
S11309A0FB01DC011196CD91DC911297D383C283B4
S11309B02C813D8135832483AC81BD8113967C9346
S11309C06E9312977D836C8391878087FC012081CD
S11309D02F5F2083DF91CF910895CF93DF93AC01F4
S11309E0EB01288139818FEF2F3F380721F4FA0179
S11309F0A781B0850DC0DA01139601C0DF011296FC
S1130A00ED91FC9113978081918128173907B0F7F4
S1130A101296ED91FC911397FB83EA83D583C483EB
S1130A20BD83AC831396DC93CE9312975987488782
S1130A30FA0180818F5F8083DF91CF910895CF93F6
S1130A40DF93FC01C085D185A281B3818481958126
S1130A5015969C938E931497A481B581828193817A
S1130A6013969C938E931297A981BA81AE17BF07F0
S1130A7031F414968D919C9115979A8389831186EC
S1130A801086888181508883DF91CF91089521E178
S1130A90FC012083319732E23083FC013297A3E3D7
S1130AA0A083FC0133976083FC0134977083FC01BD
S1130AB035971082FC01369760E86083FC01379714
S1130AC01082FC01389762E06083FC01399763E08F
S1130AD06083FC013A9764E06083FC013B9765E026
S1130AE06083FC013C9766E06083FC013D9767E00E
S1130AF06083FC013E9768E06083FC013F9769E0F6
S1130B006083FC01709760E16083FC01719720832E
S1130B10FC01729722E12083FC01739723E1208377
S1130B20FC01749724E12083FC01759725E120835F
S1130B30FC01769726E12083FC01779727E1208347
S1130B40FC01789728E12083FC01799729E120832F
S1130B50FC017A9720E22083FC017B9721E2208329
S1130B60FC017C973083FC017D9723E22083FC0108
S1130B707E974083FC017F975083FC01B09726E267
S1130B802083FC01B19727E22083FC01B29728E27D
S1130B902083FC01B39729E22083FC01B49720E36E
S1130BA02083FC01B59721E32083869708951BBC1D
S1130BB08CE78ABD8BE08EBD89B7806189BFA09127
S1130BC09303B0919403CD91CDBFDD91DEBFFF912E
S1130BD0EF91DF91CF91BF91AF919F918F917F91D1
S1130BE06F915F914F913F912F911F910F91FF90C2
S1130BF0EF90DF90CF90BF90AF909F908F907F90B9
S1130C006F905F904F903F902F901F900F900FBE6A
S1130C100F90089581E0089508950F920FB6F89407
S1130C200F921F9211242F923F924F925F926F92D4
S1130C307F928F929F92AF92BF92CF92DF92EF9268
S1130C40FF920F931F932F933F934F935F936F9351
S1130C507F938F939F93AF93BF93CF93DF93EF9340
S1130C60FF93A0919303B09194030DB60D920EB629
S1130C700D920E949610A0919303B0919403CD918C
S1130C80CDBFDD91DEBFFF91EF91DF91CF91BF9199
S1130C90AF919F918F917F916F915F914F913F9110
S1130CA02F911F910F91FF90EF90DF90CF90BF9005
S1130CB0AF909F908F907F906F905F904F903F90F8
S1130CC02F901F900F900FBE0F9008950F920FB6A4
S1130CD0F8940F921F9211242F923F924F925F9299
S1130CE06F927F928F929F92AF92BF92CF92DF9238
S1130CF0EF92FF920F931F932F933F934F935F9322
S1130D006F937F938F939F93AF93BF93CF93DF930F
S1130D10EF93FF93A0919303B09194030DB60D92BA
S1130D200EB60D920E94E60E882311F00E949610D2
S1130D30A0919303B0919403CD91CDBFDD91DEBF1B
S1130D40FF91EF91DF91CF91BF91AF919F918F91DF
S1130D507F916F915F914F913F912F911F910F91CF
S1130D60FF90EF90DF90CF90BF90AF909F908F90C7
S1130D707F906F905F904F903F902F901F900F90B7
S1130D800FBE0F9008950E94660618950FB6F8944A
S1130D900F92FC01928D0F900FBE81E0911180E0C3
S1130DA00895FC01448D4423C1F026813781240F2A
S1130DB0311D37832683A281B3812A173B0720F094
S1130DC0208131813783268336812781862F972F8F
S1130DD0632F722F50E00E9458150895EF92FF92EE
S1130DE00F931F93CF938C010FB6F8940F92FC01CD
S1130DF0C68D1C16CCF48189882331F415C0F80102
S1130E008189882341F410C00F2EF1E1EF2EFF24D5
S1130E10F02DE00EF11EC7010E946C11882311F021
S1130E200E943112C15059F78FEFF801868F0F904D
S1130E300FBE0FB6F8940F92F801C58D1C16C4F4BA
S1130E408085882331F414C0F8018085882339F41F
S1130E500FC0EE24FF246894E3F8E00EF11EC701EE
S1130E600E946C11882311F00E943112C15061F765
S1130E708FEFF801858F0F900FBECF911F910F91C7
S1130E80FF90EF9008950F931F93CF93DF93EC019E
S1130E90142F0A8D4C8D442361F488819981009725
S1130EA009F042C08A819B810E9498121B821A8297
S1130EB042C01123B9F48C819D8150E00E945815E1
S1130EC02C8D8C819D81820F911D9D838C832A8121
S1130ED03B818217930750F1888199819D838C838C
S1130EE080E029C08E819F8150E00E9458154C8D6E
S1130EF050E0509541955F4F8E819F81840F951FDF
S1130F009F838E83288139818217930730F48A81E5
S1130F109B81840F951F9F838E83123049F4002395
S1130F2049F0015080E007C080E005C080E003C0C4
S1130F3080E001C080E00F5F0A8FDF91CF911F91A5
S1130F400F910895CF93DF93EC010FB6F8940F92AD
S1130F50488159812B8D30E0EC8DF0E02E9FC0014B
S1130F602F9F900D3E9F900D1124840F951F9B83FE
S1130F708A831A8E5D834C83C9010197E89F90018F
S1130F80E99F300DF89F300D1124240F351F3F8346
S1130F902E838FEF8D8F8E8F662361F4888588234F
S1130FA089F0CE0108960E946C11882359F00E94A2
S1130FB00D0608C0CE0108960E94BC04CE014196DD
S1130FC00E94BC040F900FBE81E0DF91CF91089581
S1130FD00F931F93CF93DF93082F162F662321F0CF
S1130FE0689FC001112402C080E090E04F960E94E7
S1130FF0E303EC01009771F0112319F499838883BA
S113100003C04F96998388830B8F1C8FCE0161E0B8
S11310100E94A2078C2F9D2FDF91CF911F910F91DA
S113102008958F929F92BF92CF92DF92EF92FF9298
S11310300F931F93CF93DF9300D000D00F92CDB7BF
S1131040DEB78C014B015D834C83E22EFF24BB246D
S1131050B394CC24DD246894C3F8C80ED91E0FB60B
S1131060F8940F92F801928D838D981718F0F2E09E
S1131070EF16D1F4C801B4014E2D0E944307F801C4
S11310809189992349F0C80141960E946C118823E3
S113109039F00E940D0604C0882311F00E940D0649
S11310A00F900FBE81E052C08C819D81009721F486
S11310B00F900FBE80E04AC0FF2029F4CE010196B4
S11310C00E94F111FB2C0F900FBE0E94C60E0FB6AA
S11310D0F8940F92F801858D8F3F09F4158EF8016D
S11310E0868D8F3F09F4168E0F900FBECE010196A8
S11310F0BE016C5F7F4F0E94FC11882309F50FB677
S1131100F8940F92F801928D0F900FBEF801838D21
S1131110981781F46C817D81C6010E944111C80138
S11311200E94EE060E948B0F882309F098CF0E943C
S11311300D0695CFC8010E94EE060E948B0F8FCF3B
S1131140C8010E94EE060E948B0F80E00F900F9062
S11311500F900F900F90DF91CF911F910F91FF90FF
S1131160EF90DF90CF90BF909F908F900895CF9392
S1131170DF93482F81E060E00E94E807EC010097CC
S113118061F01B821A82198218821E8260E070E06C
S113119040E050E020E00E9411088C2F9D2FDF9149
S11311A0CF910895EF92FF920F931F93CF938C01E9
S11311B07A01FC01928D838D981710F02230F1F49E
S11311C0F801C68DC801422F0E944307CF3F89F41E
S11311D0F80181898823A1F0C80141960E946C110D
S11311E0882381F0E114F10479F081E0F701808330
S11311F00CC0CF5FF801C68F81E007C080E005C056
S113120081E003C081E001C081E0CF911F910F9183
S1131210FF90EF900895CF93DF93FC01EB01828D53
S1131220938D8917B8F4968D8F5F828F9F3F71F4E9
S11312308189882389F0CF0141960E946C1188230B
S113124069F0209769F081E088830BC09F5F968FD7
S113125081E007C080E005C081E003C081E001C0F7
S113126081E0DF91CF9108958F929F92AF92BF92C8
S1131270CF92DF92EF92FF920F931F93CF93DF935E
S113128000D000D00F92CDB7DEB77C014B015D8357
S11312904C83C22E00E0DD24D3940F2EF1E1AF2E57
S11312A0BB24F02DA80EB91E0FB6F8940F92F701C7
S11312B0128D112399F1A680B780C701B4010E9451
S11312C0D106CC20C9F41150F701128F808191818D
S11312D0009729F40E94F112F70193838283F701A6
S11312E080858823B9F0C70108960E946C11882371
S11312F089F00E940D060EC0F701B782A68281898B
S1131300882341F0C70141960E946C11882311F093
S11313100E940D060F900FBE81E061C08C819D81FB
S1131320009721F40F900FBE80E059C0002329F4E8
S1131330CE0101960E94F1110D2D0F900FBE0E9457
S1131340C60E0FB6F8940F92F701858D8F3F09F4FE
S1131350158EF701868D8F3F09F4168E0F900FBE00
S1131360CE010196BE016C5F7F4F0E94FC11882361
S113137051F5C7010E94C6068823F9F0F701808160
S11313809181009751F40FB6F8940F92F70182817E
S113139093810E943A120F900FBE6C817D81C5012A
S11313A00E944111C7010E94EE060E948B0F882300
S11313B009F07ACF0E940D0677CFC7010E94EE068E
S11313C00E948B0F71CFC7010E94EE060E948B0F03
S11313D0C7010E94C606882309F466CF80E00F90F7
S11313E00F900F900F900F90DF91CF911F910F915D
S11313F0FF90EF90DF90CF90BF90AF909F908F9031
S11314000895EF92FF920F931F93CF93DF938C0174
S11314107A01FC01C28DCC23E9F0D58D0E94D1065E
S1131420C150F801C28FDF3F81F480858823A1F089
S1131430C80108960E946C11882381F0E114F1041C
S113144079F081E0F70180830CC0DF5FF801D58F6C
S113145081E007C080E005C081E003C081E001C0F5
S113146081E0DF91CF911F910F91FF90EF9008954C
S11314700F931F93CF93DF93EC018A8D882349F058
S11314800E811F81CE010E94D1061F830E8381E04D
S113149001C080E0DF91CF911F910F9108950FB6A5
S11314A0F8940F92FC01828D0F900FBE0895FC01F9
S11314B00FB6F8940F92928D0F900FBE838D891BF7
S11314C00895FC01828D0895FC01928D81E09111B3
S11314D080E00895FC01228D81E0938D291380E042
S11314E00895DC018091020490910304009751F067
S11314F0E6E0F4E021E030E0A901808191810097E9
S113150079F402C040E050E0FA01EE0FFF1FEE0F45
S1131510FF1FEE5FFB4F71836083B383A283089543
S11315202F5F3F4F34962830310531F70895AC01D1
S113153080910404909105048417950759F0E8E01C
S1131540F4E021E030E0B9018081918184179507AE
S113155069F402C060E070E0FB01EE0FFF1FEE0FC4
S1131560FF1FEE5FFB4F8081918108952F5F3F4FF6
S113157034962830310539F780E090E00895AC01C5
S113158080910404909105048417950759F0E8E0CC
S1131590F4E021E030E0B90180819181841795075E
S11315A079F402C060E070E0FB01EE0FFF1FEE0F64
S11315B0FF1FEE5FFB4F1182108213821282089587
S11315C02F5F3F4F34962830310529F70895CF9384
S11315D0DF93EC010E94BF0ACE010E948304DF91D5
S11315E0CF9108958F9A809122049091230460E012
S11315F070E040E157E220E00E943409813099F71D
S113160082B3805882BB8FEF99E6A8E18150904065
S1131610A040E1F700C000008091220490912304CF
S113162060E070E040E050E020E00E941108DBCF71
S113163082EF9AE062E670E044E650E020E030E0B9
S113164001E0EE24FF240E94FD0B78948BB78064A4
S11316508BBF85B7836085BF81E060E043E00E9473
S1131660E80790932304809322040E94960EFFCFF0
S11316701F920F920FB60F9211242F933F934F9303
S11316805F936F937F938F939F93AF93BF93EF93E6
S1131690FF93809122049091230460E070E00E9403
S11316A00B09FF91EF91BF91AF919F918F917F9122
S11316B06F915F914F913F912F910F900FBE0F90BB
S11316C01F901895FC018285938523E0873F92073C
S11316D061F42489358983E0253E380741F081E0AF
S11316E02115310529F080E0089580E0089580E017
S11316F00895E091A303F091A4038081882339F431
S11317008FEF9FEF90939703809396030895E09152
S1131710A303F091A4030580F681E02D0680F781F0
S1131720E02D82819381909397038093960308958B
S1131730EF92FF921F93CF93DF93EC01162FE0906B
S11317409D03F0909E0380919303909194030296DD
S11317500E941F058FEFCF3FD80769F4112359F07A
S113176060919303709194036E5F7F4F87EF93E0D2
S11317700E94CE042FC0CE0DDF1DE0919303F091A3
S11317809403D383C283CE15DF0568F48091A1034B
S11317909091A20360919303709194036E5F7F4FC5
S11317A00E94ED0417C08091A3039091A40360915B
S11317B09303709194036E5F7F4F0E94ED048091B8
S11317C0960390919703C817D90720F4D0939703F1
S11317D0C0939603DF91CF911F91FF90EF900895EE
S11317E0CF93DF93EC018F89988D0E948304CE01FF
S11317F00E948304DF91CF9108952F923F924F92DC
S11318005F926F927F928F929F92AF92BF92DF927C
S1131810EF92FF920F931F93CF93DF933C015B01F1
S1131820EA012901D02E4701CA010E94E3037C0189
S1131830009709F4EDC08AE290E00E94E3038C0172
S1131840009781F0FC01F08EE78A219717012C0E96
S11318503D1EF5018081F801818FF5018081882387
S113186031F413C0C7010E9483048FEFD6C0E8018E
S11318706A96D501119681E0FD019D91999390811D
S1131880992319F08F5F8A30B9F7F80112A2CD2D90
S1131890C53008F0C4E0F801C68BC3A314A2EE243B
S11318A0FF246894E1F8E00EF11EC7010E94CA0407
S11318B0C8010C960E94CA04F8011187008785E0CC
S11318C090E08C1B910995878487138B028B15A25A
S11318D016A217A210A611A6C101B301A2010E946B
S11318E04705F801918380838114910419F0F40170
S11318F0118300830FB6F8940F9280919F038F5F3A
S113190080939F038091930390919403009709F02F
S11319103FC0109394030093930380919F038130FD
S113192009F047C0C0E0D0E0CE01880F991F880FAE
S1131930991F880F991F8C0F9D1F8A559C4F0E94D9
S1131940BC042196C530D10579F7C3EDD3E0CE01AF
S11319500E94BC040F2EFCEDAF2EF3E0BF2EF02D41
S1131960C5010E94BC0485EE93E00E94BC048EEE87
S113197093E00E94BC0487EF93E00E94BC04D093E0
S1131980A403C093A303B092A203A092A10311C025
S113199080919B03882369F4E0919303F09194036D
S11319A09689F8018689891720F01093940300938F
S11319B093038091A5038F5F8093A503F801868923
S11319C090919C03981710F480939C0390E09C01E1
S11319D0220F331F220F331F220F331F820F931F37
S11319E08A559C4FB7010E94CE040F900FBE809180
S11319F09B03882379F0E0919303F09194039689F3
S1131A00F8018689981740F40E940D0681E005C00C
S1131A108FEF03C081E001C081E0DF91CF911F917E
S1131A200F91FF90EF90DF90BF90AF909F908F90B9
S1131A307F906F905F904F903F902F9008950F93F9
S1131A401F93CF93DF930FB6F8940F92009729F466
S1131A50C0919303D091940301C0EC018E010E5FF9
S1131A601F4FC8010E941F058C899D89009721F092
S1131A70CE010C960E941F058091A5038F5F809371
S1131A80A5038091930390919403C817D90759F43F
S1131A908EEE93E0B8010E94CE048091A0038F5F84
S1131AA08093A0030AC080919F03815080939F0379
S1131AB0CE010E94F00B0E94790B0F900FBE809113
S1131AC09B03882349F08091930390919403C81752
S1131AD0D90711F40E940D06DF91CF911F910F9148
S1131AE008950FB6F8940F92009729F4E0919303A8
S1131AF0F091940301C0FC010F900FBE86890895F4
S1131B00009729F4E0919303F091940301C0FC0140
S1131B1086890895EF92FF921F93CF93DF936530E8
S1131B2008F064E00FB6F8940F92009729F4C0917E
S1131B309303D091940301C0EC012BA1261709F45F
S1131B4061C0261788F48091930390919403C81779
S1131B50D907A1F0E0919303F091940311E08689F1
S1131B60681768F410E00BC080919303909194037C
S1131B7011E0C817D90719F010E001C010E08E89F0
S1131B80281709F46E8B6BA32C853D85332334F021
S1131B9025E030E0261B31093D872C8790E09C012D
S1131BA0220F331F220F331F220F331F820F931F65
S1131BB08A559C4F2A853B8528173907F9F4EE246A
S1131BC0FF246894E1F8EC0EFD1EC7010E941F0576
S1131BD08E8990919C03981710F480939C0390E055
S1131BE09C01220F331F220F331F220F331F820F3A
S1131BF0931F8A559C4FB7010E94CE04112311F004
S1131C000E940D060F900FBEDF91CF911F91FF90A0
S1131C10EF9008950F931F93CF93DF93EC010097F8
S1131C20B9F18091930390919403C817D90781F176
S1131C300FB6F8940F92CE010E94620B882331F103
S1131C408E010E5F1F4FC8010E941F058E8990915F
S1131C509C03981710F480939C0390E09C01220F3E
S1131C60331F220F331F220F331F820F931F8A55F6
S1131C709C4FB8010E94CE04E0919303F091940329
S1131C809E898689981710F00E940D060F900FBE4A
S1131C90DF91CF911F910F910895EF92FF921F93BF
S1131CA0CF93DF93EC010E94620B8823B9F18091FA
S1131CB09503882351F5E0919303F091940311E087
S1131CC09E898689981708F410E0EE24FF2468940E
S1131CD0E1F8EC0EFD1EC7010E941F058E8990914C
S1131CE09C03981710F480939C0390E09C01220FAE
S1131CF0331F220F331F220F331F820F931F8A5566
S1131D009C4FB7010E94CE040AC0BE01645F7F4F9E
S1131D1085EE93E00E94CE0410E001C010E0812F14
S1131D20DF91CF911F91FF90EF900895EF92FF9272
S1131D300F938BE090E164E670E048EC50E020E023
S1131D4030E000E00F2EF0E0EF2EF4E0FF2EF02D57
S1131D500E94FD0B813081F4F8948FEF9FEF9093F4
S1131D6097038093960381E080939B0310929E03D4
S1131D7010929D030E94D7050F91FF90EF90089554
S1131D80F89410929B030E940C0608958091950389
S1131D908F5F8093950308950FB6F8940F92809106
S1131DA09D0390919E030F900FBE089580919D0313
S1131DB090919E03089580919F030895009721F4C4
S1131DC0809193039091940349960895CF92DF9262
S1131DD0EF92FF920F931F93CF93DF93809195031C
S1131DE0882309F082C0C0909D03D0909E0308947C
S1131DF0C11CD11CD0929E03C0929D03C114D10476
S1131E00B9F48091A3039091A4032091A10330918C
S1131E10A2033093A4032093A3039093A20380937B
S1131E20A103809198038F5F809398030E94790B9C
S1131E308091960390919703C816D90620F4FF2445
S1131E405AC0FE2C03C0FF24EE24E394E091A303C4
S1131E50F091A4038081882339F48FEF9FEF90934E
S1131E6097038093960347C0E091A303F091A403E2
S1131E700580F681E02DC681D7818A819B81C816B1
S1131E80D90628F4909397038093960334C08E0167
S1131E900E5F1F4FC8010E941F058C899D89009702
S1131EA021F0CE010C960E941F058E8990919C030F
S1131EB0981710F480939C0390E09C01220F331F29
S1131EC0220F331F220F331F820F931F8A559C4FFB
S1131ED0B8010E94CE04E0919303F09194039E898B
S1131EE08689981708F0ADCFB1CF80919A038F5FA0
S1131EF080939A03FF2480919903882311F0FF248F
S1131F00F3948F2DDF91CF911F910F91FF90EF905C
S1131F10DF90CF900895DF92EF92FF920F931F937B
S1131F20CF93DF930FB6F8940F928091950381506D
S1131F308093950380919503882309F05FC0809175
S1131F409F03882391F55DC0E091EA03F091EB03D0
S1131F50C681D781CE010C960E941F058E010E5FAB
S1131F601F4FC8010E941F058E8990919C039817EA
S1131F7010F480939C0390E09C01220F331F220FE6
S1131F80331F220F331F820F931F8A559C4FB801B2
S1131F900E94CE04E0919303F09194039E89868974
S1131FA0981768F0D09299030AC0C0E0D0E00F2ED1
S1131FB0F5EEEF2EF3E0FF2EF02DDD24D394F701A0
S1131FC08081882309F6209711F00E94790BC09133
S1131FD09A03CC2359F001E00E94E60E882311F005
S1131FE000939903C150C1F710929A038091990309
S1131FF0882331F00E940D0681E003C080E001C017
S113200080E00F900FBEDF91CF911F910F91FF9051
S1132010EF90DF9008950EEE13E00F2EF6EAEF2E08
S1132020F3E0FF2EF02D24C00E94C60EF801C081FB
S11320300E948B0FCC23E1F00FB6F8940F92E0913D
S1132040F303F091F403C681D781CE0102960E9476
S11320501F0580919F03815080939F038091A0036B
S113206081508093A0030F900FBECE010E94F00B0D
S11320708091A0038823C1F6F70180818230C0F3E8
S11320800E940D06F5CFCF93DF93EC01009751F03A
S11320900E94C60ECE0160E00E94980B0E948B0F36
S11320A0882311F40E940D06DF91CF9108950F93B8
S11320B01F93CF93DF938C01EB010E94C60E809196
S11320C09D0390919E03F80120813181C20FD31F9B
S11320D08217930748F4C217D307F8F4D183C08357
S11320E08C179D0778F407C0C217D30790F08C179C
S11320F09D0778F012C09E01281B390BC90160E0CE
S11321000E94980B0E948B0F882359F40E940D069D
S113211008C0F801D183C083EECFF801D183C08316
S1132120F1CFDF91CF911F910F9108958091950385
S1132130882321F081E080939903089510929903F4
S113214020919C03822F90E0FC01EE0FFF1FEE0F05
S1132150FF1FEE0FFF1FE80FF91FEA55FC4F3081F8
S1132160332389F42150822F90E0FC01EE0FFF1FEE
S1132170EE0FFF1FEE0FFF1FE80FF91FEA55FC4F8C
S11321803081332379F3DC01AA0FBB1FAA0FBB1FD5
S1132190AA0FBB1F8A0F9B1FDC01AA55BC4F1196C7
S11321A0ED91FC9112970280F381E02D1296FC933D
S11321B0EE931197CD010396E817F90731F4828164
S11321C0938112969C938E9311971196ED91FC91A5
S11321D0129786819781909394038093930320931D
S11321E09C0308950F931F93CF93DF930FB6F89436
S11321F00F92009729F4009193031091940301C066
S11322008C01E8012296CE010E941F05F801848901
S11322109589009721F0C8010C960E941F0587EF4D
S113222093E0BE010E94CE040F900FBE80919B03E9
S1132230882339F00FB6F8940F920E94790B0F900F
S11322400FBE809193039091940308171907A1F48A
S113225080919B03882319F00E940D060DC0809184
S11322609F039091F703981729F410929403109206
S1132270930302C00E949610DF91CF911F910F919A
S11322800895CF93DF93EB016091930370919403CE
S1132290645F7F4F0E94ED04CE0161E00E94980BC1
S11322A0DF91CF910895CF93DF93EA01E0919303F7
S11322B0F0919403706875876487609193037091BB
S11322C09403645F7F4F0E94CE04CE0161E00E94BC
S11322D0980BDF91CF9108950F931F93CF93DF93C2
S11322E0DC011596ED91FC91169706811781E801A2
S11322F02C96CE010E941F05809195038823E9F452
S1132300E8012296CE010E941F05F801868990916A
S11323109C03981710F480939C0390E09C01220F77
S1132320331F220F331F220F331F820F931F8A552F
S11323309C4FBE010E94CE0405C085EE93E0BE0111
S11323400E94CE04E0919303F0919403D801569631
S11323509C9156978689891720F481E0809399038C
S113236001C080E0DF91CF911F910F9108950F93E9
S11323701F93CF93DF937068FC0171836083C681E0
S1132380D7810E941F058E010E5F1F4FC8010E9456
S11323901F058E8990919C03981710F480939C03D9
S11323A090E09C01220F331F220F331F220F331F93
S11323B0820F931F8A559C4FB8010E94CE04E0916E
S11323C09303F09194039E898689891720F481E010
S11323D08093990301C080E0DF91CF911F910F9109
S11323E00895FC0180919803808380919D039091CE
S11323F09E03928381830895FC01DB010FB6F89458
S11324000F9260919D0370919E034D915C91119781
S11324108FEF4F3F5807E9F0809198039081981708
S113242029F08181928168177907A8F481819281CA
S11324309B01281B390B2417350778F4861B970B4F
S1132440840F951F8D939C93CF010E94F11180E01E
S113245005C080E003C081E001C081E00F900FBEA1
S1132460089581E080939903089580919303909156
S1132470940308950F931F93CF93DF93EC01009778
S113248009F451C08E89E0919303F09194039689E5
S1132490891708F048C02C853D8533235CF0E09112
S11324A09303F0919403968925E030E0291B3109C8
S11324B03D872C8790E09C01220F331F220F331F8E
S11324C0220F331F820F931F8A559C4F2A853B8509
S11324D02817390711F58E010E5F1F4FC8010E949E
S11324E01F05E0919303F091940386898E8B90915C
S11324F09C03981710F480939C0390E09C01220F96
S1132500331F220F331F220F331F820F931F8A554D
S11325109C4FB8010E94CE0406C0E0919303F09151
S1132520940386898E8BDF91CF911F910F9108952B
S11325300F931F93CF93DF93EC01009781F18CA14C
S113254081508CA32E899BA1291759F1882359F511
S11325508E010E5F1F4FC8010E941F054BA14E8BB9
S1132560242F30E085E090E0821B930B9D878C87BD
S113257080919C03841710F440939C03C901880F35
S1132580991F880F991F880F991F280F391FC90198
S11325908A559C4FB8010E94CE0481E005C080E0BA
S11325A003C080E001C080E0DF91CF911F910F91C3
S11325B00895E0919303F091940384859585E091C7
S11325C09303F0919403A0919303B09194035696CE
S11325D04C91569725E030E0241B31093587248738
S11325E008958091930390919403009739F0E091BA
S11325F09303F091940384A18F5F84A38091930348
S11326009091940308950F931F93CF93C82F0FB6FF
S1132610F8940F92E0919303F091940385A196A10D
S1132620A7A1B0A50097A105B10579F4E0919303A2
S1132630F091940381E081A76115710531F0CB011C
S113264061E00E94980B0E940D060F900FBE0FB61A
S1132650F8940F92E0919303F091940305A116A1CD
S113266027A130A50115110521053105C1F0CC23A1
S113267049F0E0919303F091940315A216A217A2D6
S113268010A60DC0E0919303F0919403D901C80101
S11326900197A109B10985A396A3A7A3B0A7E091C7
S11326A09303F091940311A60F900FBE602F712F26
S11326B0822F932FCF911F910F9108958F929F9204
S11326C0AF92BF92EF92FF920F931F93DC01CB0165
S11326D049015A010FB6F8940F92E0919303F091D7
S11326E0940321A5223019F1E0919303F09194030E
S11326F045A156A167A170A580959095A095B09528
S113270084239523A623B72385A396A3A7A3B0A7C1
S1132710E0919303F091940381E081A7E114F10423
S113272031F0C70161E00E94980B0E940D060F90E2
S11327300FBE0FB6F8940F920115110569F0E091E0
S11327409303F091940385A196A1A7A1B0A5F801E4
S113275080839183A283B383E0919303F0919403E4
S113276081A58130B1F0E0919303F091940385A1A8
S113277096A1A7A1B0A580949094A094B094882227
S11327809922AA22BB2285A296A2A7A2B0A681E082
S113279001C080E0E0919303F091940311A60F909F
S11327A00FBE1F910F91FF90EF90BF90AF909F903D
S11327B08F9008950F931F93CF93DF93EC010FB67F
S11327C0F8940F920115110549F08DA19EA1AFA1B6
S11327D0B8A5F80180839183A283B38339A582E0ED
S11327E089A72230B9F0233018F4213051F505C0FF
S11327F02330E1F0243029F51EC08DA19EA1AFA1A4
S1132800B8A5482B592B6A2B7B2B4DA35EA36FA332
S113281078A717C08DA19EA1AFA1B8A50196A11D4F
S1132820B11D8DA39EA3AFA3B8A70BC04DA35EA3F8
S11328306FA378A706C0323071F14DA35EA36FA3D6
S113284078A7313051F58E010E5F1F4FC8010E94E9
S11328501F058E8990919C03981710F480939C0314
S113286090E09C01220F331F220F331F220F331FCE
S1132870820F931F8A559C4FB8010E94CE04E091A9
S11328809303F09194039E898689891740F40E94EA
S11328900D0681E005C080E003C081E001C081E055
S11328A00F900FBEDF91CF911F910F910895EF927A
S11328B0FF920F931F93CF93DF93EC010115110542
S11328C049F08DA19EA1AFA1B8A5F80180839183A1
S11328D0A283B38339A582E089A72230B9F02330DB
S11328E018F4213059F505C02330E1F0243031F5D6
S11328F01EC08DA19EA1AFA1B8A5842B952BA62B9C
S1132900B72B8DA39EA3AFA3B8A718C08DA19EA17A
S1132910AFA1B8A50196A11DB11D8DA39EA3AFA320
S1132920B8A70CC04DA35EA36FA378A707C032302D
S113293009F441C04DA35EA36FA378A73130E9F534
S1132940809195038823E9F48E010E5F1F4FC8011F
S11329500E941F058E8990919C03981710F4809310
S11329609C0390E09C01220F331F220F331F220F80
S1132970331F820F931F8A559C4FB8010E94CE04C7
S113298007C0BE01645F7F4F85EE93E00E94CE04D2
S1132990E0919303F09194039E898689891778F4D2
S11329A0E114F10421F081E0F701808309C081E0A2
S11329B08093990305C080E003C081E001C081E0F9
S11329C0DF91CF911F910F91FF90EF900895EF92B7
S11329D0FF920F931F93CF93DF93EC018B0129A5F3
S11329E082E089A78DA19EA1AFA1B8A50196A11DE2
S11329F0B11D8DA39EA3AFA3B8A72130E9F58091A3
S1132A009503882301F5EE24FF246894E1F8EC0E85
S1132A10FD1EC7010E941F058E8990919C03981783
S1132A2010F480939C0390E09C01220F331F220F2B
S1132A30331F220F331F820F931F8A559C4FB701F8
S1132A400E94CE0407C0BE01645F7F4F85EE93E011
S1132A500E94CE04E0919303F09194039E898689A9
S1132A60891750F40115110521F081E0F8018083E4
S1132A7003C081E080939903DF91CF911F910F915F
S1132A80FF90EF900895009729F4E0919303F0915B
S1132A90940301C0FC010FB6F8940F9281A5823013
S1132AA019F411A681E001C080E00F900FBE0895D3
S1132AB0FB01DC0102C001900D9241505040D8F757
S1092AC00895F894FFCF15
S10D2AC61F034D0049444C45000075
S9030000FC
