:100000000C942A000C9447000C9447000C94470071
:100010000C9447000C9447000C9447000C94120772
:100020000C9447000C9447000C9447000C94470034
:100030000C9447000C9447000C9447000C94470024
:100040000C9447000C9447000C9447000C94470014
:100050000C94470011241FBECFE5D8E0DEBFCDBF12
:1000600010E0A0E6B0E0E4E8FAE202C005900D92EC
:10007000AC36B107D9F714E0ACE6B0E001C01D9290
:10008000A832B107E1F70E947B050C9440150C944F
:100090000000823451F1833420F4813409F07BC0B4
:1000A00007C0833409F43EC0843409F074C057C0DB
:1000B000413069F42AB381E090E0AC0102C0440F02
:1000C000551F6A95E2F7BA01622B6ABB08952AB3FD
:1000D00081E090E0AC0102C0440F551F6A95E2F741
:1000E000BA01609562236ABB0895413069F427B371
:1000F00081E090E0AC0102C0440F551F6A95E2F721
:10010000BA01622B67BB089527B381E090E0AC0190
:1001100002C0440F551F6A95E2F7BA016095622349
:1001200067BB0895413069F424B381E090E0AC01ED
:1001300002C0440F551F6A95E2F7BA01622B64BBF7
:10014000089524B381E090E0AC0102C0440F551F34
:100150006A95E2F7BA016095622364BB0895413065
:1001600069F421B381E090E0AC0102C0440F551F57
:100170006A95E2F7BA01622B61BB089521B381E071
:1001800090E0AC0102C0440F551F6A95E2F7BA0136
:100190006095622361BB0895823451F1833420F469
:1001A000813409F07BC007C0833409F43EC0843435
:1001B00009F074C057C0413069F42BB381E090E07E
:1001C000AC0102C0440F551F6A95E2F7BA01622BD9
:1001D0006BBB08952BB381E090E0AC0102C0440FEB
:1001E000551F6A95E2F7BA01609562236BBB0895CB
:1001F000413069F428B381E090E0AC0102C0440FC3
:10020000551F6A95E2F7BA01622B68BB089528B3BF
:1002100081E090E0AC0102C0440F551F6A95E2F7FF
:10022000BA016095622368BB0895413069F425B333
:1002300081E090E0AC0102C0440F551F6A95E2F7DF
:10024000BA01622B65BB089525B381E090E0AC0153
:1002500002C0440F551F6A95E2F7BA016095622308
:1002600065BB0895413069F422B381E090E0AC01B0
:1002700002C0440F551F6A95E2F7BA01622B62BBB8
:10028000089522B381E090E0AC0102C0440F551FF5
:100290006A95E2F7BA016095622362BB08958234E1
:1002A000F9F0833420F4813409F052C006C083345D
:1002B00051F1843409F04CC039C029B381E090E099
:1002C000062E02C0880F991F0A94E2F730E08223BD
:1002D000932302C0959587956A95E2F7982F38C0C9
:1002E00026B381E090E0062E02C0880F991F0A9481
:1002F000E2F730E08223932302C0959587956A95B3
:10030000E2F7982F25C023B381E090E0062E02C0CB
:10031000880F991F0A94E2F730E08223932302C0EA
:10032000959587956A95E2F7982F12C020B381E0E2
:1003300090E0062E02C0880F991F0A94E2F730E081
:100340008223932302C0959587956A95E2F7982FAB
:10035000892F08958234B9F0833418F48134C9F5B3
:1003600005C08334E9F08434A1F527C02BB381E0C4
:1003700090E0AC0102C0440F551F6A95E2F7BA0144
:1003800062276BBB089528B381E090E0AC0102C006
:10039000440F551F6A95E2F7BA01622768BB0895BA
:1003A00025B381E090E0AC0102C0440F551F6A956F
:1003B000E2F7BA01622765BB089522B381E090E0BD
:1003C000AC0102C0440F551F6A95E2F7BA016227DB
:1003D00062BB0895823461F0833418F4813469F487
:1003E00005C0833439F0843441F406C06BBB0895F2
:1003F00068BB089565BB089562BB0895823479F0A7
:10040000833418F48134C9F405C0833469F084342A
:10041000A1F40FC08BB3607F682B6BBB089588B3CA
:10042000607F682B68BB089585B3607F682B65BBD0
:10043000089582B3607F682B62BB0895823471F0A7
:10044000833418F48134A9F405C0833459F084341A
:1004500081F40CC08BB38F708BBB089588B38F7001
:1004600088BB089585B38F7085BB089582B38F7064
:1004700082BB0895442341F46823792381E0611508
:10048000710551F480E008959B012823392381E010
:100490006217730709F080E00895CF93DF938BE034
:1004A00090E00E94E303EC01009731F0FC0111920F
:1004B0001192CF010E94BC048C2F9D2FDF91CF9110
:1004C0000895AF92BF92CF92DF92EF92FF920F9377
:1004D0001F93CF93DF935C016B01E42EF22E0E94F9
:1004E000A50EF501C081D181CE01B6014F2D0E942C
:1004F0003A02882351F0EE2001F1C094D094CC222E
:10050000DD22F501D182C08218C001151105A9F0C4
:10051000EE2019F460E070E002C060E071E0F110DC
:1005200074606C297D29C5010296A8010E943211D0
:100530000E946A0F882339F404C00E946A0FCE011A
:1005400021C00E945C060E94B812EC0191FD18C007
:100550000FB6F8940F92F501C081D181CE01B6019A
:100560004F2D0E943A02882349F0EE2039F0C094C2
:10057000D094CC22DD22F501D182C0820F900FBE33
:10058000CE019070DF91CF911F910F91FF90EF906E
:10059000DF90CF90BF90AF900895FC010FB6F89414
:1005A0000F92808191816095709568237923718382
:1005B00060830F900FBE0895FC01808191810895A2
:1005C000AF92BF92CF92DF92EF92FF920F931F9361
:1005D000CF93DF938C01EB010F2EF5E0CF2EDD24BE
:1005E000F02DC80ED91E0E94A50ED8011796ED91C8
:1005F000FC9118978D919C9111978C2B9D2B1196A6
:100600009C938E93CE16DF06C1F1AA24BB24FF244F
:10061000F394EE2401C0FE01C281D38180819181D7
:10062000BC0160709C01307092FD0BC0D8018D91AF
:100630009C911197822393234F2D009769F44E2D9F
:100640000BC0D8018D919C911197822393234F2D3C
:100650002817390709F04E2D442359F070FF02C0C6
:10066000A22AB32AD8016D917C917260CF010E94B9
:100670009611CC16DD0679F602C0AA24BB24C5016A
:1006800080959095F801A080B180A822B922B1820E
:10069000A0820E946A0FD8018C9111969C911197AB
:1006A000DF91CF911F910F91FF90EF90DF90CF904E
:1006B000BF90AF900895AF92BF92CF92DF92EF922A
:1006C000FF920F931F93CF93DF936C01EB017A019D
:1006D00059010E94A50EF60100811181C601BE01DB
:1006E0000E94E002C02BD12BC7018C239D238E15C5
:1006F0009F0551F480959095F601208131818223E8
:1007000093239183808312C0A114B10461F0B701D7
:100710007560C6010296A5010E9432110E946A0FFF
:10072000882349F406C0F601C081D1810E946A0F76
:100730001CC00E945C060E94B81291FD14C00FB646
:10074000F8940F92F6018081918197012823392333
:100750002E153F0531F42095309528233923318318
:1007600020830F900FBEEC01D0708C2F9D2FDF9156
:10077000CF911F910F91FF90EF90DF90CF90BF909E
:10078000AF900895CF93DF93EC010E94A50E8A816C
:10079000882349F08F81988560E072E00E9496116D
:1007A0008A818823B9F7CE010E9483040E946A0FD0
:1007B000DF91CF910895BA010E94E0020895BA0135
:1007C0000E94CD0208950F931F93CF93DF93EC0106
:1007D0000E94A50E80916C008823F9F486E790E0D2
:1007E00090936E0080936D001092700010926F00D5
:1007F0008FE193E09093740080937300E3E7F0E05F
:10080000129212929093790080937800F09377007F
:10081000E093760081E080936C00209709F462C039
:100820009E012C5F3F4F239683E0CE31D80708F01E
:100830005CC0E0916D00F0916E00ADE6B0E002C0EA
:10084000DF01FC01828193818217930720F480816C
:1008500091810097A9F7C0E0E137FC0709F448C08F
:100860008D919C9111978C010C5F1F4F808191811C
:1008700011969C938E9382819381821B930B893076
:10088000910518F1AF01420F531FDA0113969C93A3
:100890008E9312973383228312962D913C91139756
:1008A0006DE670E001C0BD01EB01A881B98112962F
:1008B0008D919C91139782179307A8F3EA01B9834E
:1008C000A883DB0111965C934E9380916000909118
:1008D000610022813381821B930B9093610080938E
:1008E000600008C000E010E005C000E010E002C0B9
:1008F00000E010E00E946A0F802F912FDF91CF91CE
:100900001F910F9108950F931F93CF93DF93EC01E5
:10091000009739F18C01045010400E94A50EF80197
:1009200022813381ADE6B0E001C0DF01ED91FC91A1
:1009300011978281938182179307B8F32497F983E3
:10094000E8830D931C9380916000909161002A814F
:100950003B81820F931F90936100809360000E94FF
:100960006A0FDF91CF911F910F91089580916000E0
:100970009091610008950895FC010396928381830C
:100980002FEF3FEF3483238396838583908787837C
:1009900010820895FC01118610860895CF93DF938D
:1009A000FB01DC011196CD91DC911297D383C283B8
:1009B0002C813D8135832483AC81BD8113967C934A
:1009C0006E9312977D836C8391878087FC012081D1
:1009D0002F5F2083DF91CF910895CF93DF93AC01F8
:1009E000EB01288139818FEF2F3F380721F4FA017D
:1009F000A781B0850DC0DA01139601C0DF01129600
:100A0000ED91FC9113978081918128173907B0F7F8
:100A10001296ED91FC911397FB83EA83D583C483EF
:100A2000BD83AC831396DC93CE9312975987488786
:100A3000FA0180818F5F8083DF91CF910895CF93FA
:100A4000DF93FC01C085D185A281B381848195812A
:100A500015969C938E931497A481B581828193817E
:100A600013969C938E931297A981BA81AE17BF07F4
:100A700031F414968D919C9115979A8389831186F0
:100A80001086888181508883DF91CF9108950E94DC
:100A9000A50E80910404909105040196909305049D
:100AA000809304048FEF91EEA4E081509040A04029
:100AB000E1F700C0000080910604909107040196C0
:100AC00090930704809306040E946A0FE0CF8F9AE8
:100AD000209104043091050480910604909107044C
:100AE0002817390719F482B3805882BB84E690E056
:100AF0000E942210EDCF87E695E062E670E044E6C2
:100B000050E020E030E002E0EE24FF240E94DC0B05
:100B100087E495E064E670E044E650E020E030E0F1
:100B200001E00E94DC0B0E94750EFFCF21E1FC0169
:100B30002083319732E23083FC013297A3E3A08314
:100B4000FC0133976083FC0134977083FC01359777
:100B50001082FC01369760E86083FC0137971082B1
:100B6000FC01389762E06083FC01399763E06083A1
:100B7000FC013A9764E06083FC013B9765E0608389
:100B8000FC013C9766E06083FC013D9767E0608371
:100B9000FC013E9768E06083FC013F9769E0608359
:100BA000FC01709760E16083FC0171972083FC0178
:100BB000729722E12083FC01739723E12083FC01DB
:100BC000749724E12083FC01759725E12083FC01C3
:100BD000769726E12083FC01779727E12083FC01AB
:100BE000789728E12083FC01799729E12083FC0193
:100BF0007A9720E22083FC017B9721E22083FC018D
:100C00007C973083FC017D9723E22083FC017E9753
:100C10004083FC017F975083FC01B09726E220833C
:100C2000FC01B19727E22083FC01B29728E22083E0
:100C3000FC01B39729E22083FC01B49720E32083D1
:100C4000FC01B59721E32083869708951BBC8CE7B0
:100C50008ABD8BE08EBD89B7806189BFA091950365
:100C6000B0919603CD91CDBFDD91DEBFFF91EF91A5
:100C7000DF91CF91BF91AF919F918F917F916F91B4
:100C80005F914F913F912F911F910F91FF90EF90A6
:100C9000DF90CF90BF90AF909F908F907F906F909C
:100CA0005F904F903F902F901F900F900FBE0F902E
:100CB000089581E0089508950F920FB6F8940F9269
:100CC0001F9211242F923F924F925F926F927F92C8
:100CD0008F929F92AF92BF92CF92DF92EF92FF924C
:100CE0000F931F932F933F934F935F936F937F9334
:100CF0008F939F93AF93BF93CF93DF93EF93FF9324
:100D0000A0919503B09196030DB60D920EB60D927B
:100D10000E947510A0919503B0919603CD91CDBF1F
:100D2000DD91DEBFFF91EF91DF91CF91BF91AF9148
:100D30009F918F917F916F915F914F913F912F91F3
:100D40001F910F91FF90EF90DF90CF90BF90AF90E9
:100D50009F908F907F906F905F904F903F902F90DB
:100D60001F900F900FBE0F9008950F920FB6F8943A
:100D70000F921F9211242F923F924F925F926F9287
:100D80007F928F929F92AF92BF92CF92DF92EF921B
:100D9000FF920F931F932F933F934F935F936F9304
:100DA0007F938F939F93AF93BF93CF93DF93EF93F3
:100DB000FF93A0919503B09196030DB60D920EB6D8
:100DC0000D920E94C50E882311F00E947510A0910B
:100DD0009503B0919603CD91CDBFDD91DEBFFF911C
:100DE000EF91DF91CF91BF91AF919F918F917F91C3
:100DF0006F915F914F913F912F911F910F91FF90B4
:100E0000EF90DF90CF90BF90AF909F908F907F90AA
:100E10006F905F904F903F902F901F900F900FBE5C
:100E20000F9008950E94B50618950FB6F8940F928A
:100E3000FC01928D0F900FBE81E0911180E008952A
:100E4000FC01448D4423C1F026813781240F311DDC
:100E500037832683A281B3812A173B0720F02081A4
:100E600031813783268336812781862F972F632F01
:100E7000722F50E00E9437150895EF92FF920F9362
:100E80001F93CF938C010FB6F8940F92FC01C68D7F
:100E90001C16CCF48189882331F415C0F8018189AE
:100EA000882341F410C00F2EF1E1EF2EFF24F02D26
:100EB000E00EF11EC7010E944B11882311F00E9421
:100EC0001012C15059F78FEFF801868F0F900FBEA7
:100ED0000FB6F8940F92F801C58D1C16C4F48085E6
:100EE000882331F414C0F8018085882339F40FC0B9
:100EF000EE24FF246894E3F8E00EF11EC7010E947F
:100F00004B11882311F00E941012C15061F78FEF2E
:100F1000F801858F0F900FBECF911F910F91FF9019
:100F2000EF9008950F931F93CF93DF93EC01142F4D
:100F30000A8D4C8D442361F488819981009709F0D2
:100F400042C08A819B810E9477121B821A8242C012
:100F50001123B9F48C819D8150E00E9437152C8DAE
:100F60008C819D81820F911D9D838C832A813B8181
:100F70008217930750F1888199819D838C8380E04B
:100F800029C08E819F8150E00E9437154C8D50E022
:100F9000509541955F4F8E819F81840F951F9F8350
:100FA0008E83288139818217930730F48A819B814F
:100FB000840F951F9F838E83123049F4002349F0DC
:100FC000015080E007C080E005C080E003C080E001
:100FD00001C080E00F5F0A8FDF91CF911F910F91C9
:100FE0000895CF93DF93EC010FB6F8940F924881E8
:100FF00059812B8D30E0EC8DF0E02E9FC0012F9FAA
:10100000900D3E9F900D1124840F951F9B838A8322
:101010001A8E5D834C83C9010197E89F9001E99F77
:10102000300DF89F300D1124240F351F3F832E8380
:101030008FEF8D8F8E8F662361F48885882389F0EA
:10104000CE0108960E944B11882359F00E945C063D
:1010500008C0CE0108960E94BC04CE0141960E94B1
:10106000BC040F900FBE81E0DF91CF9108950F93E4
:101070001F93CF93DF93082F162F662321F0689FCD
:10108000C001112402C080E090E04F960E94E3036B
:10109000EC01009771F0112319F49983888303C040
:1010A0004F96998388830B8F1C8FCE0161E00E943D
:1010B000F1078C2F9D2FDF91CF911F910F910895F4
:1010C0008F929F92BF92CF92DF92EF92FF920F93F7
:1010D0001F93CF93DF9300D000D00F92CDB7DEB730
:1010E0008C014B015D834C83E22EFF24BB24B3941F
:1010F000CC24DD246894C3F8C80ED91E0FB6F8942A
:101100000F92F801928D838D981718F0F2E0EF1688
:10111000D1F4C801B4014E2D0E949207F8019189C3
:10112000992349F0C80141960E944B11882339F058
:101130000E945C0604C0882311F00E945C060F9098
:101140000FBE81E052C08C819D81009721F40F90E9
:101150000FBE80E04AC0FF2029F4CE0101960E9414
:10116000D011FB2C0F900FBE0E94A50E0FB6F89465
:101170000F92F801858D8F3F09F4158EF801868D49
:101180008F3F09F4168E0F900FBECE010196BE015F
:101190006C5F7F4F0E94DB11882309F50FB6F8942E
:1011A0000F92F801928D0F900FBEF801838D981762
:1011B00081F46C817D81C6010E942011C8010E94CA
:1011C0003D070E946A0F882309F098CF0E945C06B1
:1011D00095CFC8010E943D070E946A0F8FCFC801BA
:1011E0000E943D070E946A0F80E00F900F900F90C1
:1011F0000F900F90DF91CF911F910F91FF90EF9083
:10120000DF90CF90BF909F908F900895CF93DF9302
:10121000482F81E060E00E943708EC01009761F000
:101220001B821A82198218821E8260E070E040E000
:1012300050E020E00E9460088C2F9D2FDF91CF911D
:101240000895EF92FF920F931F93CF938C017A0131
:10125000FC01928D838D981710F02230F1F4F80183
:10126000C68DC801422F0E949207CF3F89F4F80132
:1012700081898823A1F0C80141960E944B118823DF
:1012800081F0E114F10479F081E0F70180830CC072
:10129000CF5FF801C68F81E007C080E005C081E024
:1012A00003C081E001C081E0CF911F910F91FF90B9
:1012B000EF900895CF93DF93FC01EB01828D938D26
:1012C0008917B8F4968D8F5F828F9F3F71F4818963
:1012D000882389F0CF0141960E944B11882369F041
:1012E000209769F081E088830BC09F5F968F81E033
:1012F00007C080E005C081E003C081E001C081E05B
:10130000DF91CF9108958F929F92AF92BF92CF922B
:10131000DF92EF92FF920F931F93CF93DF9300D052
:1013200000D00F92CDB7DEB77C014B015D834C83BB
:10133000C22E00E0DD24D3940F2EF1E1AF2EBB24AA
:10134000F02DA80EB91E0FB6F8940F92F701128D6A
:10135000112399F1A680B780C701B4010E9420072C
:10136000CC20C9F41150F701128F80819181009730
:1013700029F40E94D012F70193838283F7018085BC
:101380008823B9F0C70108960E944B11882389F081
:101390000E945C060EC0F701B782A682818988236D
:1013A00041F0C70141960E944B11882311F00E9421
:1013B0005C060F900FBE81E061C08C819D8100971B
:1013C00021F40F900FBE80E059C0002329F4CE0114
:1013D00001960E94D0110D2D0F900FBE0E94A50EF8
:1013E0000FB6F8940F92F701858D8F3F09F4158E93
:1013F000F701868D8F3F09F4168E0F900FBECE0138
:101400000196BE016C5F7F4F0E94DB11882351F56E
:10141000C7010E9415078823F9F0F70180819181A7
:10142000009751F40FB6F8940F92F70182819381DF
:101430000E9419120F900FBE6C817D81C5010E9420
:101440002011C7010E943D070E946A0F882309F0FE
:101450007ACF0E945C0677CFC7010E943D070E94A9
:101460006A0F71CFC7010E943D070E946A0FC70132
:101470000E941507882309F466CF80E00F900F9033
:101480000F900F900F90DF91CF911F910F91FF90D0
:10149000EF90DF90CF90BF90AF909F908F90089586
:1014A000EF92FF920F931F93CF93DF938C017A01FA
:1014B000FC01C28DCC23E9F0D58D0E942007C150DC
:1014C000F801C28FDF3F81F480858823A1F0C80135
:1014D00008960E944B11882381F0E114F10479F001
:1014E00081E0F70180830CC0DF5FF801D58F81E0D8
:1014F00007C080E005C081E003C081E001C081E059
:10150000DF91CF911F910F91FF90EF9008950F936E
:101510001F93CF93DF93EC018A8D882349F00E81CE
:101520001F81CE010E9420071F830E8381E001C02E
:1015300080E0DF91CF911F910F9108950FB6F8943D
:101540000F92FC01828D0F900FBE0895FC010FB623
:10155000F8940F92928D0F900FBE838D891B089582
:10156000FC01828D0895FC01928D81E0911180E053
:101570000895FC01228D81E0938D291380E0089568
:10158000DC018091080490910904009751F0ECE08F
:10159000F4E021E030E0A90180819181009779F4A5
:1015A00002C040E050E0FA01EE0FFF1FEE0FFF1FF8
:1015B000E85FFB4F71836083B383A28308952F5F3D
:1015C0003F4F34962830310531F70895AC018091B2
:1015D0000A0490910B048417950759F0EEE0F4E0AB
:1015E00021E030E0B901808191818417950769F489
:1015F00002C060E070E0FB01EE0FFF1FEE0FFF1F67
:10160000E85FFB4F8081918108952F5F3F4F3496B3
:101610002830310539F780E090E00895AC018091E1
:101620000A0490910B048417950759F0EEE0F4E05A
:1016300021E030E0B901808191818417950779F428
:1016400002C060E070E0FB01EE0FFF1FEE0FFF1F16
:10165000E85FFB4F118210821382128208952F5F80
:101660003F4F34962830310529F70895CF93DF9303
:10167000EC010E940E0BCE010E948304DF91CF91FA
:101680000895FC018285938523E0893F920761F4E8
:101690002489358983E0273E380741F081E0211510
:1016A000310529F080E0089580E0089580E00895F4
:1016B000E091A503F091A6038081882339F48FEF90
:1016C0009FEF90939903809398030895E091A50369
:1016D000F091A6030580F681E02D0680F781E02DCC
:1016E0008281938190939903809398030895EF9258
:1016F000FF921F93CF93DF93EC01162FE0909F038F
:10170000F090A003809195039091960302960E9419
:101710001F058FEFCF3FD80769F4112359F060916F
:101720009503709196036E5F7F4F89EF93E00E945F
:10173000CE042FC0CE0DDF1DE0919503F0919603EE
:10174000D383C283CE15DF0568F48091A303909103
:10175000A40360919503709196036E5F7F4F0E9482
:10176000ED0417C08091A5039091A60360919503A5
:10177000709196036E5F7F4F0E94ED0480919803F5
:1017800090919903C817D90720F4D0939903C09377
:101790009803DF91CF911F91FF90EF900895CF9321
:1017A000DF93EC018F89988D0E948304CE010E9403
:1017B0008304DF91CF9108952F923F924F925F92D1
:1017C0006F927F928F929F92AF92BF92DF92EF9231
:1017D000FF920F931F93CF93DF933C015B01EA01CC
:1017E0002901D02E4701CA010E94E3037C01009722
:1017F00009F4EDC08AE290E00E94E3038C010097B7
:1018000081F0FC01F08EE78A219717012C0E3D1E16
:10181000F5018081F801818FF5018081882331F401
:1018200013C0C7010E9483048FEFD6C0E8016A96F7
:10183000D501119681E0FD019D91999390819923A5
:1018400019F08F5F8A30B9F7F80112A2CD2DC5309B
:1018500008F0C4E0F801C68BC3A314A2EE24FF2451
:101860006894E1F8E00EF11EC7010E94CA04C801A5
:101870000C960E94CA04F8011187008785E090E069
:101880008C1B910995878487138B028B15A216A256
:1018900017A210A611A6C101B301A2010E949605CC
:1018A000F801918380838114910419F0F40111836C
:1018B00000830FB6F8940F928091A1038F5F8093FD
:1018C000A1038091950390919603009709F03FC082
:1018D00010939603009395038091A103813009F042
:1018E00047C0C0E0D0E0CE01880F991F880F991F34
:1018F000880F991F8C0F9D1F88559C4F0E94BC0418
:101900002196C530D10579F7C5EDD3E0CE010E940F
:10191000BC040F2EFEEDAF2EF3E0BF2EF02DC5015F
:101920000E94BC0487EE93E00E94BC0480EF93E029
:101930000E94BC0489EF93E00E94BC04D093A603EC
:10194000C093A503B092A403A092A30311C08091F9
:101950009D03882369F4E0919503F091960396899D
:10196000F8018689891720F0109396030093950358
:101970008091A7038F5F8093A703F80186899091D8
:101980009E03981710F480939E0390E09C01220F11
:10199000331F220F331F220F331F820F931F8855CF
:1019A0009C4FB7010E94CE040F900FBE80919D0303
:1019B000882379F0E0919503F09196039689F801D8
:1019C0008689981740F40E945C0681E005C08FEF7D
:1019D00003C081E001C081E0DF91CF911F910F91A1
:1019E000FF90EF90DF90BF90AF909F908F907F908F
:1019F0006F905F904F903F902F9008950F931F939B
:101A0000CF93DF930FB6F8940F92009729F4C0910B
:101A10009503D091960301C0EC018E010E5F1F4F1C
:101A2000C8010E941F058C899D89009721F0CE0175
:101A30000C960E941F058091A7038F5F8093A703D8
:101A40008091950390919603C817D90759F480EFB8
:101A500093E0B8010E94CE048091A2038F5F80932F
:101A6000A2030AC08091A10381508093A103CE01FB
:101A70000E94CF0B0E94580B0F900FBE80919D03C8
:101A8000882349F08091950390919603C817D90750
:101A900011F40E945C06DF91CF911F910F91089580
:101AA0000FB6F8940F92009729F4E0919503F09106
:101AB000960301C0FC010F900FBE86890895009720
:101AC00029F4E0919503F091960301C0FC01868909
:101AD0000895EF92FF921F93CF93DF93653008F044
:101AE00064E00FB6F8940F92009729F4C091950323
:101AF000D091960301C0EC012BA1261709F461C017
:101B0000261788F48091950390919603C817D907FA
:101B1000A1F0E0919503F091960311E08689681792
:101B200068F410E00BC0809195039091960311E04A
:101B3000C817D90719F010E001C010E08E892817E6
:101B400009F46E8B6BA32C853D85332334F025E09F
:101B500030E0261B31093D872C8790E09C01220F45
:101B6000331F220F331F220F331F820F931F8855FD
:101B70009C4F2A853B8528173907F9F4EE24FF246A
:101B80006894E1F8EC0EFD1EC7010E941F058E89C6
:101B900090919E03981710F480939E0390E09C010F
:101BA000220F331F220F331F220F331F820F931F69
:101BB00088559C4FB7010E94CE04112311F00E945A
:101BC0005C060F900FBEDF91CF911F91FF90EF90B9
:101BD00008950F931F93CF93DF93EC010097B9F112
:101BE0008091950390919603C817D90781F10FB69C
:101BF000F8940F92CE010E94410B882331F18E019F
:101C00000E5F1F4FC8010E941F058E8990919E0391
:101C1000981710F480939E0390E09C01220F331FCD
:101C2000220F331F220F331F820F931F88559C4FA3
:101C3000B8010E94CE04E0919503F09196039E892D
:101C40008689981710F00E945C060F900FBEDF91F6
:101C5000CF911F910F910895EF92FF921F93CF9311
:101C6000DF93EC010E94410B8823B9F18091970327
:101C7000882351F5E0919503F091960311E09E8938
:101C80008689981708F410E0EE24FF246894E1F8A0
:101C9000EC0EFD1EC7010E941F058E8990919E03C8
:101CA000981710F480939E0390E09C01220F331F3D
:101CB000220F331F220F331F820F931F88559C4F13
:101CC000B7010E94CE040AC0BE01645F7F4F87EE59
:101CD00093E00E94CE0410E001C010E0812FDF915C
:101CE000CF911F91FF90EF900895EF92FF920F9385
:101CF0008AEE9FE066E670E048EC50E020E030E0DD
:101D000000E00F2EF2E0EF2EF4E0FF2EF02D0E9407
:101D1000DC0B813081F4F8948FEF9FEF909399035F
:101D20008093980381E080939D031092A00310920A
:101D30009F030E9426060F91FF90EF900895F8945C
:101D400010929D030E945B060895809197038F5F18
:101D50008093970308950FB6F8940F9280919F0394
:101D60009091A0030F900FBE089580919F039091D2
:101D7000A00308958091A1030895009721F4809114
:101D800095039091960349960895CF92DF92EF9232
:101D9000FF920F931F93CF93DF9380919703882334
:101DA00009F082C0C0909F03D090A0030894C11C8A
:101DB000D11CD092A003C0929F03C114D104B9F4E6
:101DC0008091A5039091A6032091A3033091A403D1
:101DD0003093A6032093A5039093A4038093A303B9
:101DE00080919A038F5F80939A030E94580B809191
:101DF000980390919903C816D90620F4FF245AC07D
:101E0000FE2C03C0FF24EE24E394E091A503F0919F
:101E1000A6038081882339F48FEF9FEF9093990375
:101E20008093980347C0E091A503F091A603058035
:101E3000F681E02DC681D7818A819B81C816D9069B
:101E400028F4909399038093980334C08E010E5F19
:101E50001F4FC8010E941F058C899D89009721F0A2
:101E6000CE010C960E941F058E8990919E039817B3
:101E700010F480939E0390E09C01220F331F220FE9
:101E8000331F220F331F820F931F88559C4FB801B9
:101E90000E94CE04E0919503F09196039E89868975
:101EA000981708F0ADCFB1CF80919C038F5F8093DE
:101EB0009C03FF2480919B03882311F0FF24F3945B
:101EC0008F2DDF91CF911F910F91FF90EF90DF90B9
:101ED000CF900895DF92EF92FF920F931F93CF93CD
:101EE000DF930FB6F8940F928091970381508093FF
:101EF000970380919703882309F05FC08091A10325
:101F0000882391F55DC0E091EC03F091ED03C6816B
:101F1000D781CE010C960E941F058E010E5F1F4FC8
:101F2000C8010E941F058E8990919E03981710F496
:101F300080939E0390E09C01220F331F220F331FDA
:101F4000220F331F820F931F88559C4FB8010E94A8
:101F5000CE04E0919503F09196039E8986899817A7
:101F600068F0D0929B030AC0C0E0D0E00F2EF7EEDD
:101F7000EF2EF3E0FF2EF02DDD24D394F7018081C6
:101F8000882309F6209711F00E94580BC0919C03FA
:101F9000CC2359F001E00E94C50E882311F0009374
:101FA0009B03C150C1F710929C0380919B0388232F
:101FB00031F00E945C0681E003C080E001C080E057
:101FC0000F900FBEDF91CF911F910F91FF90EF9077
:101FD000DF90089500EF13E00F2EF8EAEF2EF3E004
:101FE000FF2EF02D24C00E94A50EF801C0810E9492
:101FF0006A0FCC23E1F00FB6F8940F92E091F5034D
:10200000F091F603C681D781CE0102960E941F058A
:102010008091A10381508093A1038091A2038150FC
:102020008093A2030F900FBECE010E94CF0B809130
:10203000A2038823C1F6F70180818230C0F30E9499
:102040005C06F5CFCF93DF93EC01009751F00E942F
:10205000A50ECE0160E00E94770B0E946A0F8823D4
:1020600011F40E945C06DF91CF9108950F931F93A6
:10207000CF93DF938C01EB010E94A50E80919F030B
:102080009091A003F80120813181C20FD31F8217E4
:10209000930748F4C217D307F8F4D183C0838C1791
:1020A0009D0778F407C0C217D30790F08C179D07DF
:1020B00078F012C09E01281B390BC90160E00E9414
:1020C000770B0E946A0F882359F40E945C0608C0AF
:1020D000F801D183C083EECFF801D183C083F1CF63
:1020E000DF91CF911F910F910895809197038823DD
:1020F00021F081E080939B03089510929B0320912F
:102100009E03822F90E0FC01EE0FFF1FEE0FFF1FDA
:10211000EE0FFF1FE80FF91FE855FC4F3081332306
:1021200089F42150822F90E0FC01EE0FFF1FEE0F8B
:10213000FF1FEE0FFF1FE80FF91FE855FC4F30811E
:10214000332379F3DC01AA0FBB1FAA0FBB1FAA0F11
:10215000BB1F8A0F9B1FDC01A855BC4F1196ED9148
:10216000FC9112970280F381E02D1296FC93EE937E
:102170001197CD010396E817F90731F48281938115
:1021800012969C938E9311971196ED91FC91129754
:1021900086819781909396038093950320939E0365
:1021A00008950F931F93CF93DF930FB6F8940F9278
:1021B000009729F4009195031091960301C08C01BA
:1021C000E8012296CE010E941F05F80184899589B5
:1021D000009721F0C8010C960E941F0589EF93E03B
:1021E000BE010E94CE040F900FBE80919D038823F4
:1021F00039F00FB6F8940F920E94580B0F900FBE53
:10220000809195039091960308171907A1F4809186
:102210009D03882319F00E945C060DC08091A103E4
:102220009091F903981729F4109296031092950350
:1022300002C00E947510DF91CF911F910F910895F8
:10224000CF93DF93EB016091950370919603645FE8
:102250007F4F0E94ED04CE0161E00E94770BDF9179
:10226000CF910895CF93DF93EA01E0919503F09128
:1022700096037068758764876091950370919603E3
:10228000645F7F4F0E94CE04CE0161E00E94770B15
:10229000DF91CF9108950F931F93CF93DF93DC01CC
:1022A0001596ED91FC91169706811781E8012C9601
:1022B000CE010E941F05809197038823E9F4E8016D
:1022C0002296CE010E941F05F801868990919E03F7
:1022D000981710F480939E0390E09C01220F331F07
:1022E000220F331F220F331F820F931F88559C4FDD
:1022F000BE010E94CE0405C087EE93E0BE010E949D
:10230000CE04E0919503F0919603D80156969C91E6
:1023100056978689891720F481E080939B0301C03A
:1023200080E0DF91CF911F910F9108950F931F933C
:10233000CF93DF937068FC0171836083C681D7817E
:102340000E941F058E010E5F1F4FC8010E941F05CE
:102350008E8990919E03981710F480939E0390E0CD
:102360009C01220F331F220F331F220F331F820FB6
:10237000931F88559C4FB8010E94CE04E0919503AD
:10238000F09196039E898689891720F481E08093D5
:102390009B0301C080E0DF91CF911F910F910895C1
:1023A000FC0180919A03808380919F039091A00308
:1023B000928381830895FC01DB010FB6F8940F929C
:1023C00060919F037091A0034D915C9111978FEFE5
:1023D0004F3F5807E9F080919A039081981729F0B0
:1023E0008181928168177907A8F4818192819B018C
:1023F000281B390B2417350778F4861B970B840F9D
:10240000951F8D939C93CF010E94D01180E005C051
:1024100080E003C081E001C081E00F900FBE08950D
:1024200081E080939B03089580919503909196039A
:1024300008950F931F93CF93DF93EC01009709F456
:1024400051C08E89E0919503F09196039689891782
:1024500008F048C02C853D8533235CF0E09195035E
:10246000F0919603968925E030E0291B31093D87DC
:102470002C8790E09C01220F331F220F331F220F65
:10248000331F820F931F88559C4F2A853B85281741
:10249000390711F58E010E5F1F4FC8010E941F05FD
:1024A000E0919503F091960386898E8B90919E031F
:1024B000981710F480939E0390E09C01220F331F25
:1024C000220F331F220F331F820F931F88559C4FFB
:1024D000B8010E94CE0406C0E0919503F0919603E6
:1024E00086898E8BDF91CF911F910F9108950F9365
:1024F0001F93CF93DF93EC01009781F18CA1815062
:102500008CA32E899BA1291759F1882359F58E0197
:102510000E5F1F4FC8010E941F054BA14E8B242F39
:1025200030E085E090E0821B930B9D878C87809143
:102530009E03841710F440939E03C901880F991FCE
:10254000880F991F880F991F280F391FC9018855B7
:102550009C4FB8010E94CE0481E005C080E003C01A
:1025600080E001C080E0DF91CF911F910F9108952D
:10257000E0919503F091960384859585E09195030C
:10258000F0919603A0919503B091960356964C91C5
:10259000569725E030E0241B3109358724870895BC
:1025A0008091950390919603009739F0E0919503FF
:1025B000F091960384A18F5F84A3809195039091FD
:1025C000960308950F931F93CF93C82F0FB6F894D7
:1025D0000F92E0919503F091960385A196A1A7A192
:1025E000B0A50097A105B10579F4E0919503F091AC
:1025F000960381E081A76115710531F0CB0161E09F
:102600000E94770B0E945C060F900FBE0FB6F894E5
:102610000F92E0919503F091960305A116A127A1D1
:1026200030A50115110521053105C1F0CC2349F074
:10263000E0919503F091960315A216A217A210A699
:102640000DC0E0919503F0919603D901C80101975F
:10265000A109B10985A396A3A7A3B0A7E09195030B
:10266000F091960311A60F900FBE602F712F822F4D
:10267000932FCF911F910F9108958F929F92AF92B8
:10268000BF92EF92FF920F931F93DC01CB014901A0
:102690005A010FB6F8940F92E0919503F0919603CA
:1026A00021A5223019F1E0919503F091960345A1FF
:1026B00056A167A170A580959095A095B0958423AB
:1026C0009523A623B72385A396A3A7A3B0A7E0913C
:1026D0009503F091960381E081A7E114F10431F0B4
:1026E000C70161E00E94770B0E945C060F900FBE4D
:1026F0000FB6F8940F920115110569F0E09195035A
:10270000F091960385A196A1A7A1B0A5F8018083B9
:102710009183A283B383E0919503F091960381A501
:102720008130B1F0E0919503F091960385A196A1D7
:10273000A7A1B0A580949094A094B09488229922E7
:10274000AA22BB2285A296A2A7A2B0A681E001C0C0
:1027500080E0E0919503F091960311A60F900FBED3
:102760001F910F91FF90EF90BF90AF909F908F902F
:1027700008950F931F93CF93DF93EC010FB6F89456
:102780000F920115110549F08DA19EA1AFA1B8A529
:10279000F80180839183A283B38339A582E089A75E
:1027A0002230B9F0233018F4213051F505C0233020
:1027B000E1F0243029F51EC08DA19EA1AFA1B8A5DE
:1027C000482B592B6A2B7B2B4DA35EA36FA378A7B5
:1027D00017C08DA19EA1AFA1B8A50196A11DB11DE5
:1027E0008DA39EA3AFA3B8A70BC04DA35EA36FA3F9
:1027F00078A706C0323071F14DA35EA36FA378A70E
:10280000313051F58E010E5F1F4FC8010E941F0528
:102810008E8990919E03981710F480939E0390E008
:102820009C01220F331F220F331F220F331F820FF1
:10283000931F88559C4FB8010E94CE04E0919503E8
:10284000F09196039E898689891740F40E945C0660
:1028500081E005C080E003C081E001C081E00F900D
:102860000FBEDF91CF911F910F910895EF92FF92CC
:102870000F931F93CF93DF93EC010115110549F0DE
:102880008DA19EA1AFA1B8A5F80180839183A283F9
:10289000B38339A582E089A72230B9F0233018F438
:1028A000213059F505C02330E1F0243031F51EC048
:1028B0008DA19EA1AFA1B8A5842B952BA62BB72BDC
:1028C0008DA39EA3AFA3B8A718C08DA19EA1AFA151
:1028D000B8A50196A11DB11D8DA39EA3AFA3B8A756
:1028E0000CC04DA35EA36FA378A707C0323009F4D4
:1028F00041C04DA35EA36FA378A73130E9F5809165
:1029000097038823E9F48E010E5F1F4FC8010E94D0
:102910001F058E8990919E03981710F480939E0353
:1029200090E09C01220F331F220F331F220F331F11
:10293000820F931F88559C4FB8010E94CE0407C098
:10294000BE01645F7F4F87EE93E00E94CE04E0916A
:102950009503F09196039E898689891778F4E1148E
:10296000F10421F081E0F701808309C081E08093C8
:102970009B0305C080E003C081E001C081E0DF91DE
:10298000CF911F910F91FF90EF900895EF92FF92DA
:102990000F931F93CF93DF93EC018B0129A582E066
:1029A00089A78DA19EA1AFA1B8A50196A11DB11DBA
:1029B0008DA39EA3AFA3B8A72130E9F5809197031B
:1029C000882301F5EE24FF246894E1F8EC0EFD1E47
:1029D000C7010E941F058E8990919E03981710F4DD
:1029E00080939E0390E09C01220F331F220F331F20
:1029F000220F331F820F931F88559C4FB7010E94EF
:102A0000CE0407C0BE01645F7F4F87EE93E00E9453
:102A1000CE04E0919503F09196039E8986898917EB
:102A200050F40115110521F081E0F801808303C005
:102A300081E080939B03DF91CF911F910F91FF90D5
:102A4000EF900895009729F4E0919503F091960393
:102A500001C0FC010FB6F8940F9281A5823019F4E1
:102A600011A681E001C080E00F900FBE0895FB0128
:102A7000DC0102C001900D9241505040D8F70895FA
:042A8000F894FFCFF8
:0C2A84001F034D004E0049444C4500006B
:00000001FF
